:040000006F10E00598
:100004000000000000000000EE050000F005000004
:10001400000000005C100000000000000000000070
:100024005C1000005C1000000000000000000000F4
:10003400DE360000000000000002000000000000A6
:100044005C1000005C1000005C1000005C100000FC
:100054005C1000005C1000005C1000005C100000EC
:100064005C1000005C1000005C1000005C100000DC
:100074005C1000005C1000005C1000005C100000CC
:100084005C1000005C1000005C1000005C100000BC
:100094005C1000005C1000005C1000005C100000AC
:1000A4005C1000005C1000005C1000005C1000009C
:1000B4005C1000005C1000005C1000005C1000008C
:1000C4005C1000005C1000005C1000005C1000007C
:1000D4005C1000005C1000005C1000008C1B000031
:1000E4005C1000005C1000005C1000005C1000005C
:1000F4005C1000005C1000005C1000005C1000004C
:10010400000000005C1000005C1000005C100000A7
:100114005C1000005C1000005C1000005C1000002B
:100124005C1000005C1000005C1000005C1000001B
:100134005C1000005C1000005C1000005C1000000B
:100144005C1000005C1000005C1000005C100000FB
:100154005C1000005C1000005C1000005C100000EB
:100164005C1000005C1000005C1000005C100000DB
:100174005C1000005C1000005C1000005C100000CB
:100184005C1000005C1000005C1000005C100000BB
:100194005C1000005C1000005C1000005C100000AB
:1001A400000000000000000000000000000000004B
:0C01B4000000000000000000000000003F
:10020000130181F806C216C41AC61EC822CA26CC1B
:100210002ACE2ED032D236D43AD63ED842DA46DC76
:100220004ADECEC0D2C2D6C4DAC6DEC8E2CAE6CC46
:10023000EACEEED0F2D2F6D4FAD6FED8F3220030CF
:1002400096DA83A2019423A02200F32510342EC055
:100250009305000273A0458003A1C18CEF40E036F6
:1002600003A3019403210300824273901234D652F7
:10027000739002309240A2423243C2435244E2445D
:10028000724582551256A2563257C2575258E258FA
:1002900072598649164AA64A364BC64B564CE64C0E
:1002A000764D865D165EA65E365FC65F13018107DA
:1002B0007300203013000000130000001300000042
:1002C00013000000130000001300000013000000E2
:1002D00013000000130000001300000013000000D2
:1002E00013000000130000001300000013000000C2
:1002F00013000000130000001300000013000000B2
:1003000083A2C18C938202E07390023403A1019412
:10031000024182403243C2435244E2447245825514
:100320001256A2563257C2575258E258725986494D
:10033000164AA64A364BC64B564CE64C764D865D61
:10034000165EA65E365FC65FD652A102739002307B
:10035000A2421301810782801300000013000000F5
:100360001300000013000000130000001300000041
:100370001300000013000000130000001300000031
:100380001300000013000000130000001300000021
:100390001300000013000000130000001300000011
:1003A0001300000013000000130000001300000001
:1003B00013000000130000001300000013000000F1
:1003C00013000000130000001300000013000000E1
:1003D00013000000130000001300000013000000D1
:1003E00013000000130000001300000013000000C1
:1003F00013000000130000001300000013000000B1
:10040000F322003093F272FF130380781203B3E2F9
:100410006200711523205500130585FA10C12115BE
:10042000232005009302000063870200711523203A
:100430000500FD12D5BF71150CC1828000000000BF
:1004400000000000000000000000000000000000AC
:10045000000000000000000000000000000000009C
:10046000000000000000000000000000000000008C
:10047000000000000000000000000000000000007C
:10048000000000000000000000000000000000006C
:10049000000000000000000000000000000000005C
:1004A000000000000000000000000000000000004C
:1004B000000000000000000000000000000000003C
:1004C000000000000000000000000000000000002C
:1004D000000000000000000000000000000000001C
:1004E000000000000000397101436EC619A0397187
:1004F00041536AC866CA62CC5ECE19A039710153F5
:100500005AD056D252D44ED64AD826DA22DC06DE4B
:1005100033016140828241114AC026C222C406C60C
:100520008282B24D4101024D924C224CB24B4101AC
:10053000024B924A224AB249410102499244224462
:10054000B240410182803D432A876373C30293779F
:10055000F700BDEFADE5937606FF3D8ABA960CC372
:100560004CC30CC74CC74107E36BD7FE11E2828036
:10057000B306C3408A069702000096966780A600DD
:100580002307B700A306B7002306B700A305B700EB
:100590002305B700A304B7002304B700A303B700E3
:1005A0002303B700A302B7002302B700A301B700DB
:1005B0002301B700A300B7002300B700828093F5A2
:1005C000F50F93968500D58D93960501D58D61B76E
:1005D000939627009702000096968682E78086FA17
:1005E0009680C1171D8F3E96E374C3F8A5B701A08E
:1005F000B707EFBE37E700E0938707083CC701A0C5
:10060000EFF2DFEFBD479304E0FD63EBB70A9147DC
:10061000B55463E7A70AAD679387C7C90A053E9536
:100620001C41828737140140214A130404C09547B6
:10063000A95463E7C7082D6893172600130808CB51
:10064000C2979C43828737140140130A00021304A7
:100650000440F1BF130A000437240140130404804E
:10066000F9B7C9C285476381F60809459307800237
:10067000A9546397A6040945A9546363E504138547
:1006800001823A9513F9F700C18B182199C3336998
:10069000E900B684B28AAE89EF30200DB717024068
:1006A000984F336A470123AC4701984F9C4F630032
:1006B000F704ED54EF30C00C21A0A954C147C5DEAA
:1006C0002685BDB5A954D147DDD6DDBFA954E14784
:1006D000DDD2FDB7A954F147D9DEDDB7A954814772
:1006E000D9DAF9BF914741BF9307800469B79D47A5
:1006F00063E83703144013972900BD47B397E70019
:1007000093C7F7FF3319E900F58FB367F9001CC0F1
:1007100018401C40E31FF7F863870A02814459BF61
:10072000138789FF54400A07BD47B397E70093C773
:10073000F7FFF58F3319E9003369F900232224010B
:1007400058405C40C1BF8547B39937016399F400B5
:100750002328340118481C48E302F7FC99BF894755
:10076000E39EF4FA232A340158485C48F5B7114A4D
:1007700037140140E5B5414A371401404DBDEFF251
:100780009FD9411122E6EF10702DEF20F0025305A2
:1007900000F0EF20500D5145EF30105DB7B700006D
:1007A00007A407E8EF10F02E5305842019E1530544
:1007B00000F0EF20500B5145EF30105BE5B7EFF242
:1007C0001FD31D71A2EEA6ECCAEAEF109037B7173F
:1007D000014013070002D8CB1307002098CB37BA8B
:1007E0000000B7BA000037BB0000EF10304107240B
:1007F000CAE887A44AE807298BE841647D1487A7E3
:100800004190D30600F053F787105387F6A0D387A3
:10081000942019E3D3072921D377F70007A7C191C3
:10082000D30600F0D39707C05387E6A08727CAE80E
:10083000D377F7106313071607278BE8D3F7E70082
:1008400007A7819187A64AE8D39407C08727CAE8FB
:1008500093D6F74129464377F76887A7419133C775
:10086000F600158FD3F7D70093D6F44133C996001D
:100870003309D940D31B07C0B346C702D39907C079
:100880003367C70263DE071037B60000130606E9B8
:10089000A5452800EF5040202947B346E9023367B9
:1008A000E90263D4041037B60000130606EBA54531
:1008B0004808EF50601EA94637B60000130686ECC4
:1008C000A5450810B71400209384040233E7DB0227
:1008D000B3C6DB02EF50401CB71700209387070216
:1008E0008387C7FBE1CB83A684FB37B600001306E2
:1008F00046EDA5456810EF50201A838744FBF9C3E5
:1009000083A604FB37B60000130646EEA54528185B
:10091000EF50801837B60000CE86130646EFA54587
:10092000C800EF50601722879306000413060004E6
:1009300081450145EF1070453800A2867D4681450E
:100940000145EF10D05E5808A2867D46A1450145BD
:10095000EF10F05D1810A2867D46C1450145EF10ED
:10096000105D7810A2867D46E1450145EF10305CB0
:100970003818A2867D46930500020145EF10305BD2
:10098000D800A2867D46930580020145EF10305ABB
:100990001305C05DEF30503D9DB507A74AE879BD0E
:1009A00037B60000130606EAE5B537B600001306B1
:1009B000C6EBF5BDB7B500009385C5ED6810EF50E7
:1009C000601425BFB7B500009385C5EE2818EF5019
:1009D000601389B7EFF23FB4094781460546814568
:1009E00009453939854537150140EF007014130565
:1009F000401FEF307037854537150140EF009013E9
:100A00001305401FEF305036F1BFEFF2DFB01D711C
:100A1000B7140020054937B4000003A5C4297D564A
:100A20008A85EF308022E31A25FF8A851305C4EFFB
:100A3000EF403074DDB735712EC332C536C72A8614
:100A4000540193050006080886DE3AC93ECB42CD24
:100A500046CF36C6EF50E012B717002003A5C729CE
:100A60000C0881460146EF30C003F6500D618280CC
:100A7000EFF27FAAEF207039AA8537B50000130581
:100A8000C5CD553FB7170020B7B50000371500009A
:100A90009387872915478146130600109385C5CE95
:100AA0001305459DEF30A04C85476307F50037B52A
:100AB0000000130585CF4137EF203035AA8537B5C3
:100AC0000000130505D1853FB7170020B7B500001A
:100AD000371500009387472A1547814613060018EB
:100AE000938545D2130505D2EF30604885476307EB
:100AF000F50037B50000130545D3353FEF20F03042
:100B0000AA8537B50000130505D53537B71700207E
:100B1000B7B50000371500009387C72A15478146EF
:100B200013060018938545D6130525CCEF302044D5
:100B300085476307F50037B50000130505D7E53D88
:100B4000EF20B02CAA8537B50000130585D8E53510
:100B5000B7170020B7B50000371500009387872826
:100B600015478146130600109385C5D9130565C93D
:100B7000EF30E03F85476307F50037B50000130508
:100B800085DA553DEF207028AA8537B5000013059A
:100B900005DC5535B7170020B7B500003705000054
:100BA000938747291547814613060018938585DDED
:100BB0001305E57BEF30A03B85476307F50037B5AC
:100BC0000000130545DE853DEF203024AA8537B5AA
:100BD00000001305C5DF8535B7170020B7B5000045
:100BE0003705000093870729154781461306001033
:100BF000938505E11305E577EF3060378547630797
:100C0000F50037B500001305C5E13535EF20F01FBD
:100C1000AA8537B50000130545E3313DB71700201D
:100C2000B7B50000371500009387872A154781461E
:100C300013060010938585E41305E5C6EF302033D5
:100C400085476307F50037B50000130545E5E53333
:100C5000EF20B01BAA8537B500001305C5E6E13BC0
:100C6000B717002003A5C728EF30A04EF9B0EFF268
:100C70009F8A37B40000EF10D07A07A54191EF406A
:100C8000A0102A86AE86130504FA75331305401F9B
:100C9000EF30900DCDB7EFF21F88EF00306537B41D
:100CA0000000EF00F07C07A54190EF40E00D2A86A0
:100CB000AE86130584CC41331305401FEF30D00AB4
:100CC000CDB7EFF2BF834111EF20605A5145EF30AD
:100CD000B00937B50000130505FBB13B37B900007B
:100CE000B7B90000EF20005DAA8509C9138549FC4A
:100CF00099331305401FEF303007EDB707A58191F9
:100D0000EF40800807A5C1912AC42EC6EF40C00756
:100D10002247B2472A86AE86130549FD293BD1BF3B
:100D2000EFF26FFF37B50000130545F729331305C0
:100D3000800CEF30700337B400001305F00FEF1094
:100D400070261305E00FEF10F025EF10304209C9AF
:100D5000130584F8CD311305800CEF30F000F1BF9E
:100D6000EF10704DEF107051EF10305DEDB7EFF2F6
:100D70008FFA0945692D1145EF1060534D2AEF3068
:100D8000F071716513050520EF30F073014693058E
:100D900000064145EF20104AB717002023AEA728D0
:100DA0001DC1B7170020B7B50000371500009387A5
:100DB000072A1947814613060020938545F013053D
:100DC000A5A0EF30C01AEF10102BEF10905BB717F3
:100DD000002083A5071B37B50000130505F1A139D5
:100DE000B529AA8537B50000130505F2A931B7B5B5
:100DF000000037B500009385C5F2130545F325398A
:100E0000B7170020B7B50000371500009387C72833
:100E10001547814613060010938505F5130505A7B0
:100E2000EF30E014EF30803E37B400001305C4F516
:100E30001931EDBFB71702409843B706FFF04111D3
:100E40001367170098C3D84337060200758FD8C3BD
:100E50009843B706F7FEFD16758F98C39843B706FB
:100E6000FCFFFD16758F98C3D843B70601FFFD162A
:100E7000758FD8C39843B70600ECFD16758F98C3DD
:100E80003707FF0098C723A6070202C402C698438B
:100E9000C166558F98C3B716024005679C42F18F13
:100EA0003EC6A24785073EC4B24781E7A247E39703
:100EB000E7FEB71702409C431397E7006357070606
:100EC00085473EC632478547631FF704B717024080
:100ED000D843B706C1FFFD16D8C3D843D8C3D843FB
:100EE00013670740D8C3D843758FD8C3D843B70614
:100EF0002900558FD8C39843B7060001558F98C372
:100F0000984393166700E3DD06FED843B716024008
:100F1000719BD8C3D84313672700D8C32147DC424D
:100F2000B18BE39EE7FE4101828002C661BFB71626
:100F30000240D842B71700201146318B9387071B18
:100F40006305C70021466308C70237177A001307F5
:100F5000072098C337170240584311839376F70050
:100F60003707002013070700369714239843335799
:100F7000D70098C38280D842D442416649833D8BD2
:100F8000F18E1306270015CF3D47630FE602414758
:100F9000630FE602454781456313E6004146A1E23F
:100FA0003747024003270780418B0DC737177A0068
:100FB000130707203306C70290C3C9DD9843058392
:100FC00049BF81454946E1BF85453546C9BF814591
:100FD0003D46F1B737173D0013070790E1BF3715BE
:100FE000024058559316F700585563DF06041183E5
:100FF0003D8B9306170037177A00130707203357E6
:10100000D70298C35455A182BD8A8DE29546330715
:10101000D702058398C337170240585794433D8B36
:10102000050733D7E60298C3984369B7054563942B
:10103000A600E546E9BF3D456396A600D146338745
:10104000E602C9BF8906E5BF3D8B93061700371737
:101050007A00130707203357D702F1B701A0971181
:10106000002093812195177100201301A1F917A584
:1010700000001305E57697F5FF1F9385A5F8138605
:10108000818D63FAC5008322050023A05500110558
:101090009105E3EAC5FE170500201305251F976596
:1010A0000020938565536377B50023200500110563
:1010B000E36DB5FEFD42739002BCFD427390428029
:1010C000B7820000938202807390023097F2FFFF94
:1010D000938282F393E2320073905230EFF09FD507
:1010E000970200009382E2C873901234730020309C
:1010F0005C413707F1E01307F7EF944D7D8F9C417A
:10110000D58FD44DD58FD441A206D58FD98F5CC150
:101110001C4537F7F1FF1307D77FD4457D8F9C49D6
:10112000D58F94458606D58FD98F1CC55C5537075A
:1011300010FF7D177D8FDC29FD1793F7F70FD2077E
:10114000D98F5CD582801C4589C593E717001CC5E3
:101150008280F99BEDBF1C4593E787001CC5828008
:1011600008450D81058982801C4593E747001CC511
:10117000828008450981058982801C4591C5370711
:101180005000D98F1CC582803707B0FF7D17F98FBB
:10119000D5BFA54763F7B7048D47138765FF3307AE
:1011A000F7020328C5009D47B397E70093C7F7FFF1
:1011B000B3F70701B396E600DD8E54C5994763E3A4
:1011C000C70495477D163306F6025859FD47B39775
:1011D000C70093C7F7FFF98F3396C5005D8E50D9CE
:1011E00082800D473387E502032805019D47B397A9
:1011F000E70093C7F7FFB3F70701B396E600DD8E6C
:1012000014C96DBFB14763E2C7029547651633063F
:10121000F6021859FD47B397C70093C7F7FFF98F38
:101220003396C5005D8E10D9828095474D163306E2
:10123000F6025855FD47B397C70093C7F7FFF98FDC
:10124000B395C500DD8D4CD582806845420541814E
:10125000828008416D8D3335A0008280B7F7FF1F73
:1012600003A5477082809C4513F7070113F8F70028
:1012700001C7D8413368E8008E2113F7F50F39C351
:1012800018418146854E3D4F930F800293028004A2
:10129000214E3396DE00B3F8C50063111603939810
:1012A000260033131F011343F3FF3377E300B31812
:1012B000180133E7E800639FF70550C98506E39AF4
:1012C000C6FD18C11307F00F6375B70454412146DA
:1012D000854E3D4F930F800293028004414EB39898
:1012E000CE0033F715016392E802131726000117A9
:1012F0003313EF001343F3FFB376D3003317E80043
:10130000D98E639DF701232A15010506E319C6FD51
:1013100054C18280E39457FA10C94DB7E39757FE42
:1013200023281501DDB708456D8D3335A000828077
:101330000CC982804CC98280B7070140635A0504FA
:10134000DC4F93560501131805013707300013F6DB
:10135000F60013580801B376E50063500506639B59
:10136000E602930606010D46B316D60093C6F6FFB5
:10137000F58F99C9135755011377F73F12073317A4
:10138000E800D98F63570504370701405CCF82809E
:10139000DC4345BF1317B500635607008D46B3966F
:1013A000C600E9B7135755011377F73F12073317F4
:1013B000E8001347F7FFF98F6DBF6390E602370629
:1013C00001405442370700F17D17F98F758F58C2DD
:1013D000D5F1370701405CC382801317B500635C09
:1013E00007008D46B396C60093C6F6FFFD8EB7077D
:1013F000000FD58FF1BF1357550112073317E800BF
:101400001347F7FF7D8FB707000FD98FD1B723A000
:10141000A190828003A70190894710216311F702F0
:1014200014318D4763EDD7003C219A0637E700E081
:101430009607D58F93F7F70F32972300F740544163
:101440000547935756003317C70089CA9387070487
:101450008A07B7E600E0B69798C3828093870706AD
:10146000B7E600E08A07B69798C30F1000008280A5
:10147000B71702409843B706FFF81367170098C3E1
:10148000D843758FD8C39843B706F7FEFD16758FFE
:1014900098C39843B706FCFFFD16758F98C3D843D1
:1014A000B70681FFFD16758FD8C39843B70600ECC9
:1014B000FD16758F98C33707FF0098C723A607024C
:1014C0008280B71702409843C176FD16758F98C386
:1014D0009843B706FCFFFD16758F98C341676307F5
:1014E000E500370704006307E50082809843498FD1
:1014F00098C382809843B7060500558FD5BF37F74C
:10150000FF1F0327C770B7170240DC43931617016C
:101510003707C1FF63D406003707C3FF7D17F98F74
:101520004D8D5D8DB7170240C8C3828009C937173A
:1015300002401C43B7060001D58F1CC38280B7163A
:1015400002409C42370700FF7D17F98F9CC28280C2
:10155000371702405C43F19B5D8D48C38280B7170B
:101560000240C84331898280371702405C4393F7B9
:10157000F7F05D8D48C38280371702405C4393F7D4
:10158000F78F5D8D48C38280B7160240DC427177C9
:101590001307F77FF98F0E055D8DC8C2828037175C
:1015A00002405C439146B18B6385D700A1466382BC
:1015B000D706B7177A00938707201CC13716024059
:1015C0005C4237070020130707019183BD8BBA9750
:1015D00094231C41B3D7D7005CC15442A1829D8A99
:1015E000BA969422B3D6D70014C55442AD829D8AD0
:1015F00036971823B3D7E7005CC5584239839376F2
:1016000037001387418036971823B3D7E7021CC9E8
:1016100082805C435843C166C983758FB7F6FF1F4C
:1016200083A6C670BD8B8907139616016348060012
:10163000C54601466392D702C94739A88946638FD8
:10164000D702BD46638ED702C146638ED702C54618
:1016500001466393D700C1471DEF37470240032778
:101660000780418B05C737177A0013070720B30798
:10167000F7021CC121D61C41858381B701466DBF8D
:101680000546B547D1BF0146BD47F9B737173D00FD
:1016900013070790E9BFB7150240D8559316F70016
:1016A000D85563DF060411833D8B93061700371767
:1016B0007A00130707203357D70218C1D455A182E7
:1016C000BD8A8DE295463307D702058318C13717C7
:1016D0000240585714413D8B050733D7E60218C125
:1016E000184171B785456394B600E546E9BFBD452D
:1016F0006396B600D1463387E602C9BF8906E5BFC7
:101700003D8B9306170037177A00130707203357CE
:10171000D702F1B799C5371702401C4F5D8D08CF2E
:101720008280B7170240984F1345F5FF798D88CF17
:10173000828099C5371702405C4F5D8D48CF82800B
:10174000B7170240D84F1345F5FF798DC8CF828077
:101750009357550005476399E700B71702409C432C
:1017600033D5A7000589828009476396E700B7173C
:1017700002409C53F5B7B7170240DC53D5B7EFE2F0
:101780009FD9411102C6056413051003D137B24732
:1017900085073EC6B247638387007DD513051003D6
:1017A000453F3335A00041016FE03FD9B7160240F5
:1017B000DC5641774117F98FDD8DC98DCCD68280FB
:1017C00037F7FF1F032747701E21914611833D8B7A
:1017D000C2077117C18363E6E602373701409306FB
:1017E00007C0630ED50013070740630AE5003757AB
:1017F0000140930607C06304D500631AE50009673A
:10180000D98F37370140130707C06302E504370754
:101810000040630EE50213070740630AE50237172D
:101820000040930607806304D502130707C06300D6
:10183000E5023737014013070740630AE5003757D1
:101840000140930607C06304D5006318E50093F7D1
:10185000F7F8BA21C207C183D98F37170040630C4C
:10186000E500130707406308E50093F7F7CFFA2177
:10187000C207C183D98F1EA1DE215EB59E211EB590
:10188000B7370140138707C0630EE5009387074011
:10189000630AF500B7570140138707C06304E500EA
:1018A0006314F5009C251EB985475EA982801E3110
:1018B00065771307F7CFC207C183BD9BC207C183FA
:1018C0001EB11E31562103D88500C20713960601AA
:1018D000162DC18393F7F7FD758F96214182A206DD
:1018E000558FB62142074183B3E606019206D58F94
:1018F000B7360140C207138806C0C183630E0501D5
:1019000093860640630AD500B7560140138806C087
:1019100063040501631ED502B62593F7F7F703D8D4
:10192000C5009206D58FD621C207C183920693F7D0
:10193000F7FBD58FFD769386F63FF18EF225C20731
:10194000C183336606010A06D18E139606014182D1
:1019500052A11AADFA211ABD1EB182801E2189C57D
:1019600093E717001EA18280C207C183F99BC207BB
:10197000C183CDBF1E2189C593E707081EA18280C0
:10198000C207C18393F7F7F7C207C183C5BF1A2DFA
:10199000FD779387F77FF98FA205CD8FC207C183AB
:1019A0001EAD82800EBD8280EFE2FFB61629F5776C
:1019B000FD17F58FF621DA257971D58F1EA95625E9
:1019C000FD779387379FF58FD6212A842EC6D58F32
:1019D0009625D58FB625D58F5EA55E29C207C18312
:1019E00093F7F7CFD98F5EA96808553EB7470140F6
:1019F00093870780B245631EF402A2576547B387F9
:101A0000E7029841930640060A07B3D7E70233D7A7
:101A1000D702B3F7D7021207920793872703B3D7EA
:101A2000D702BD8BD98FC207C1831EA445616FE069
:101A3000DFB09257E1B791C55E250967D98F5EA5E2
:101A400082805A25F977FD17F98FD5BF13F7F50F67
:101A500085471583B395B7006319F7009307C50051
:101A6000984301CED98D8CC3828089469307450166
:101A7000E318D7FE93070501E5B793C5F5FFF98D88
:101A8000DDB793F5F51F4EA182804A211375F51F2E
:101A900082800A216D8D3335A000828013F7F50F07
:101AA00085461583B397B6006311D7025A25F98F7F
:101AB0001A2101454207418381CB0545A181B31518
:101AC000B5006D8F3335E000828089466314D700FE
:101AD0001A29F1BF5A29E1BFA1818547B397B70001
:101AE00093C7F7FFC207C1831EA18280EFE2BFA2A6
:101AF0007971854521453939854537050400153902
:101B000093070040FC8237140140E1473ECE4C0869
:101B10008D47130504C03ECCEFF0EFF48567938743
:101B20000780FC824C089147130504C03ECEEFF0BD
:101B30008FF3A56737540040938707603ED00C10A1
:101B4000B7070C00130504803ED402D2231601020D
:101B5000A13D13050480054693055052C53D054639
:101B60009305404213050480D535930770137C8696
:101B700085475C87680085473EC8EFF0BF8985458B
:101B8000130504804D3D45616FE03F9B5971A2D61E
:101B900037540040930550521305048082EE86ECC2
:101BA0008AEA8EE892E696E49AE29EE02AFE2EFC0D
:101BB00032FA36F83AF63EF442F246F072EE76EC3D
:101BC0007AEA7EE8E13D1DC5130504809305505275
:101BD000213713050480553D1384C19983570410A0
:101BE0009306F00F63ECF606138717002310E4103A
:101BF0003E9408A037540040C14513050480513D70
:101C000085476315F5028357048013070480C207D4
:101C1000C1833EC683574480C207C1833EC6B247D4
:101C20009387C199239007102381A71036547660BB
:101C3000E6605661C6613662A66216638663727597
:101C4000E2755276C2763277A27712788278726E17
:101C5000E26E526FC26F6561730020301306001090
:101C600081451385C199EFE01F8E2310041059B7E9
:101C7000EFE2DF88B7540040014493840480138965
:101C800081809D49930500082685213565DDB307D0
:101C900089008C2326850504ED33E31534FF375482
:101CA000004013040480930500042285DD3365DDC4
:101CB0009386C199F822DC3222075D8F9317870043
:101CC0002183D98FC207C183D3F707D0B7B70000EC
:101CD00007A7C7E8D3F7E71827A2F1906FE05F8561
:101CE00023A005008547138FF6FFB94F63C3E701B3
:101CF00082801398270032980323080093881700E6
:101D0000635567040328C8FF635168044688931E1F
:101D10002800B29E330EF840C28883AE0E006305E1
:101D2000D8000508E305D3FF63D16E0203A80500C0
:101D300063CD0F01930818000A0823A015012A9803
:101D400093081E002320F800BE98C68745B7930667
:101D5000450005476343B700828003A80600368626
:101D6000BA878328C6FF6357180123201601FD1781
:101D70007116E5FB8A07AA9723A0070105079106BC
:101D8000D1BF9386450005476343C700828003AEF9
:101D900006003688BA8713132E002A93832EC8FFB5
:101DA000032F030093982E00AA9883A8080063D7F6
:101DB000E8012320D801FD177118EDF38A07AE97CB
:101DC00023A0C70105079106C1B7EFE2CFF42A842B
:101DD000328590414111AE84A28536C65D37B24648
:101DE0001308C4FFFD577D5EB30ED0408C403E8388
:101DF00063C7B7002285A13F41016FE00FF485075B
:101E00003E869CC06394C5001108CDB7131526000B
:101E100022951841FD586304C30183280800330745
:101E2000174163C4E600635BD7019840930817002D
:101E300023A0140108410A07229708C30506D9B751
:101E4000EFE26FED41112E8442C4AA8432893EC66E
:101E5000413DB2474A86A285BE862685BD371C40D5
:101E600022486353F800C2871CC041016FE0EFECC9
:101E7000EFE2EFE7BA84BE8C5571AA8B2E8B328DC0
:101E80003689428C01478147634F670933D767031F
:101E900081461384012663CF6609A28A9306047CD7
:101EA0009387012611469843CC4391072E97CC4344
:101EB0002E978C472E973347C70223AEE7FEE39455
:101EC000F6FEA2858146138701AA1308C07B3E86D1
:101ED000C84103A30500B308D70091063305654048
:101EE00023A0A8009105E39506FFBA851305877B1B
:101EF000938701AA0948944383A847009107C6968F
:101F0000B3C6060323AED7FEE317F5FEBA88154520
:101F1000AD6E130FA047930FE01E9307B5FF138814
:101F20008EFE814625A893162700DE96944205076B
:101F3000B69799BF13962600B305C4005E9610426B
:101F40008506198E90C181BF8A07BA97035308008E
:101F50009C430908B307F3029D8EF287138E170086
:101F6000E394A7FEB3C6E6039108728523AED8FEBC
:101F7000E315FEFB9307C77B01479441910513D5F9
:101F8000F641A98E898E3697E399B7FE9306F01E27
:101F90003347D702A1471548138601AA4C004809C8
:101FA00045351247854763DDE702540981470546F9
:101FB000CC42884205069106898DAE97E31AC7FE8A
:101FC0009306F7FFB3C6D702856793870777B3C732
:101FD000D70223A0FC0085472300FC00814715A001
:101FE000930790C123A0FC0023000C00C5BF93966B
:101FF000270070084C093696AE96944285078906EC
:1020000014C2E3C6E7FE3726002081478146130647
:10201000063E63C66603AC082E8801450146930E52
:10202000301E634DE602854763CEA706930790C135
:102030002320F9002380040069616FE0CFCE33854F
:10204000FB000841B305F400850688C13305FD0097
:102050000841B305F600910788C165BF740893175E
:102060002600B6979C439386A7FF63EDDE00938618
:10207000B7FF370E0001950705436398F600631319
:10208000030005050506110869BF93982600A2986C
:1020900083A8080063D6C8012320D800468E0143D8
:1020A0008506E1BF372600209307063E1388077C8C
:1020B0001306063E914603A70A0083A84A0091072B
:1020C000910A469783A84A00469783A88A004697B4
:1020D0003347D70283A8070023AEEAFE03A7C7FF52
:1020E000469783A84700469783A8870046973347BB
:1020F000D70223AEE7FEE310F8FC02C402C602C812
:1021000002CA02CC2E8781479306401F032807008E
:10211000E3CE06F185071107E31AF5FE814A014374
:10212000294E914E130F40067D15D44103A805009A
:102130000503B3820641635E5E0AC288B70F00FFE3
:10214000370700FF15A093972800B303F40083A37B
:10215000030063D47F00468A9E8FB2979C436354EA
:10216000F700C6893E878508E3CFD8FC131B2800FB
:102170008A06B3076401B308D4009C4383A808000F
:10218000B3030A41B388F840B388780293932900D7
:10219000B3C85802BE98B30774009C43B387174175
:1021A000B387E70213D777406355E00463C35E0546
:1021B000329BB29683270B00944233880941B29335
:1021C0009D8EB3860603B3C65602BE9683A7030050
:1021D000958FB387F7039D8789CFB387E7039396DE
:1021E0002A001308010DC296850AB3C7E70223AC83
:1021F000F6F29105E34BA3F2D6852800893E93D7EA
:102200001A408D461397270063D55605FD1794098C
:102210008A07B6973697032787F383A787F3BA977A
:102220000947B3C7E7021387D7FF9306400BE3EFD5
:10223000E6DE2D6713078702BA979C231307300643
:102240006354F700930730062320F90085479CA0CC
:10225000E5B39C093E97832787F3F1B7EFE2AFAB75
:10226000411185454145EFF0EFCA89477C829307CC
:1022700080023EC64C008D47371501403EC4EFE05A
:102280009FFE894537150140EFF0CF8A41016FE08D
:10229000CFAAEFE24FA80545EF20002D894537155D
:1022A0000140EFF04F88133515006FE00FA9EFE202
:1022B0008FA6894763F5A708C14737043C0063E050
:1022C000A70275151375F50FB54737043C00630871
:1022D000F500AD670A059387471B3E950041EFF077
:1022E0002F994165EFF0EF9DEFF06FC985476314BB
:1022F000F5040145EFF04FA713050040EFF0CFA71D
:102300000145EFF06FA881450145EFF02FCA416507
:10231000A285EFF0CF9E0545EFF04FA11305900386
:10232000EFF00FC365DD0945EFF08FA22144EFF018
:102330000FA3E31E85FEEFE09FBF6FE00FA00D45EA
:1023400049B7EFE24F9D411185454145EFF08FBC04
:102350009307003E7C82C1473EC64C008D4737152F
:1023600001403EC4EFE03FF09305003E37150140C9
:10237000EFE01FFC41016FE04F9C411102C6B247E4
:1023800063E4A70041018280B24785073EC6C5BF0E
:102390002147B71701409306000213060004931566
:1023A0008501D4CBE18563CF0500D0CB7D17060531
:1023B00094CB1377F70F1375F50F75F3130700021E
:1023C000D8CB828090CBDDB7EFE2EF94B717014016
:1023D00013070010D8CB13070002D8CB553F6FE08E
:1023E000CF95EFE24F93B71701401307001098CB3A
:1023F00013070002D8CB693F6FE02F94EFE2AF9153
:1024000037140140930700021CC8930700201CC822
:102410009304000844C81305803E85371305803EA9
:1024200004C8A13F45454D3713058007B93713054B
:10243000A003593F154575371305500C7137694591
:102440004D371305600349370145613F1305200BE4
:10245000A53F1545793715456937014559371305A6
:102460003003413713053003AD3F1305700BA93F0F
:102470001545853F1305B00B813F1305F0039537D4
:102480001305000C91371305C002A13F1305200C62
:10249000253F0545B9371305300C3D373D4591378C
:1024A0001305400C153713050002253F1305600C7A
:1024B000213F05453D371305000D39371305400A07
:1024C0000D371305100A313F1305800EF53D0D45FC
:1024D000093F1305900ECD3D254521372545113780
:1024E000214501371305000EC5351305000DD53DF7
:1024F0001545C53D2545F5352545E5352145D535F8
:102500005145C53513058002E93D13053003D13D22
:102510001305F003F9351D45E9354D45D9355145CC
:10252000C93513058002753D130500035D3D130594
:10253000100E593D1305000D6D3515455D352545CA
:102540004D352545793D2145693D0D45593D1305DD
:102550004002413D13052003693513052003513521
:102560001305B003BD3D5145AD3D4D459D3D1305A2
:102570008002853D1305F002AD3513051002A93523
:102580001305900291356FD05FFBEFD23FF79304B4
:10259000F6FF41111384F6FFAA94AA891305A0023D
:1025A0002E892E943AC6B28A368A393D13D58900CF
:1025B0001375F50F3D3513F5F90F253513D5840047
:1025C0001375F50F393D13F5F40F213D1305B002D6
:1025D000E53B135589001375F50F21351375F90F78
:1025E0000935135584001375F50FE53B1375F40F8A
:1025F000CD3B1305C002C93B3247814413598700C4
:102600001379F90F1374F70F639E440141016FD0E2
:102610003FF24A85F9332285E9338509E39B59FF67
:102620008504DDB78149DDBFEFD27FEC0117137759
:10263000F70F930740034111AA842E84368A63E082
:10264000E70EAD670A079387070E3E970329070039
:102650001305A00232C6EFF03FD713D584001375DF
:10266000F50F93F9F40FEFF0DFD74E85EFF07FD73A
:102670009D0413D584001375F50FEFF09FD61385D5
:1026800079001375F50FEFF0DFD51305B002EFF009
:10269000BFD3135584001375F50F9374F40FEFF047
:1026A0005FD42685EFF0FFD31D0413558400137506
:1026B000F50FEFF01FD3138574001375F50FEFF0CE
:1026C0005FD21305C002EFF03FD03246135B8A00A1
:1026D000137BFB0F935A860093FAFA0F8144930BF6
:1026E0000008137AFA0F9379F60F214CB30799007B
:1026F00083CC07000144B3D78B40B3F797019DC348
:102700005685EFF01FCE4E850504EFF09FCDE31404
:1027100084FF8504E39C84FC41016FD0DFE01389D2
:10272000418C3DB75A85EFF0DFCB5285F1BFEFD238
:10273000FFDC2A842E89B289368ABA84930AF00E85
:102740000387040019E36FD0BFDE93077400E3EC46
:10275000FAFE2285D2864E86CA858504F13521048B
:10276000C5B7EFD25FDBAA842E84C52B1305E00A20
:10277000EF006077EF00A06715E12685EF00A076F7
:10278000EF00E06601ED2285EF00E075EF002066C6
:1027900011E5EF00006105456FD03FDAEF006060A2
:1027A0000145DDBFEFD23FD741112A847D231305B8
:1027B000E00AEF004073EF0080631DE52285EF0023
:1027C0008072EF00C0620DE1492B1305F00AEF00A3
:1027D0008071EF00C06109E9EF00A0772AC6D1231C
:1027E000324541016FD07FD56D2B0145DDBFEFD262
:1027F0009FD2AA8401452E84753705456537B12BD4
:102800001305E00AEF00206EDD2329E52685EF00A1
:10281000806DF12B21E191231305F00AEF00A06CEC
:10282000F9230DE90545EF00C07208A00545EF004A
:10283000407208B00545EF00C07128A00545EF00C3
:10284000407128B00545EF00C07048A00145EF0079
:10285000407048B0B9236FD05FCEEFD2DFCB930585
:1028600000042545EFF0FFEF930500042545EFF048
:102870005FEF6FD09FCCEFD21FCA41118545214534
:1028800002C202C402C6EFE0FFE8C14737150140AB
:102890004C00130505C07C82930780043EC6EFE020
:1028A0009F9C99295D3F9305000C0945EFF07FEB54
:1028B00081450D45EFF0FFEA81451145EFF07FEAD4
:1028C00081451545EFF0FFE981451945EFF07FE9B6
:1028D000BD452145EFF0FFE88D452545EFF07FE848
:1028E000930570022945EFF0DFE79305400231457B
:1028F000EFF03FE7930540023545EFF09FE6930583
:10290000F0074145EFF0FFE537B500001305851EE0
:10291000EF30C01741016FD05FC21C4215478A07D4
:10292000AE9788C31C428507B3E7E70213874501CA
:102930001CC2814794419105B697E39DE5FE15457C
:1029400033C5A7028280B7B7000087A6072053F7D8
:1029500005D0B7B70000D37705D05377D71087A637
:102960004720C3F7D770539507C08280EFD23FB896
:10297000370400204111130A0402B7140140856A8C
:10298000371B002002C2814B13090402B719030050
:10299000938404C0D29A130B0B028327040263C1F1
:1029A000FB02FD178A073E998327490001453EC275
:1029B00041016FD05FB77D1C63170C007D55CDBF03
:1029C000138C19D4854CC1452685EFE0DF95E304CF
:1029D00095FF2C001D45EFF09FE1188594841C8421
:1029E0002207558F931687002183558F37060300E2
:1029F000C2074207F18F4183D98F98852322FA00BD
:102A00004207718F3086931686002182D18EC206CE
:102A1000C182558F232AEA7C03A74AFA63F4E700B0
:102A200023A2FAFA03278BFA6374F7002324FBFA34
:102A3000850B110A9DB7EFD21FAEB705002083A505
:102A4000050237180020B717002037170020B716E7
:102A5000002037060020370500201308C8FD9387A3
:102A600087FD130747FD938606FD130646021305EF
:102A7000457FEFF0EFBF6FD05FACEFD2DFA6B707B7
:102A8000002003A7070293860702856A7D170A07BD
:102A90003697032A47003719002041111384070293
:102AA00093094006BE84938D070293864A96B73BEE
:102AB0000020B73C00201309090283A7040263C564
:102AC000F90041016FD0FFA5B307D4009C43032553
:102AD0004419D2853EC6EFF01FE7B2472A8D48C0A1
:102AE000D2853E85EFF03FE6232AA47C1386C19071
:102AF00093850BBB6A85EFF05FE248C00325447DF8
:102B00001386019193854CBCEFF03FE1232AA47C0E
:102B100033875D015C40032647FA856693864696B7
:102B200063F4C7002322F7FA032789FA6374F700D6
:102B30002324F9FA8509110449B7B71700209387B0
:102B400007028386C7FB0547639CE60283A587FBD4
:102B5000130770076346B702EFD2FF9B03A607FB7C
:102B600037B500002384B190A384C19093F5F50F8D
:102B70001376F60F13058520EF20B05F6FD0FF9B13
:102B80008280EFD25F997971854513054020EFE08F
:102B90007FB8371501408D4705444C00130505806B
:102BA0003EC4608223130100231601002317010095
:102BB000EFE06FEB1306000281450808EFD0BF98E5
:102BC0002302810237240140B7070E000C081305C9
:102BD00004403ECEEFE0CFD19D460546814513052A
:102BE0000440EFE00FDB854513050440EFE0AFD56F
:102BF00013050440EFE02FD6930404402685EFE050
:102C00002FD66DFD1305044037240140EFE0CFD5EA
:102C1000130404402285EFE0CFD56DFD45616FD0F0
:102C2000DF91EFD25F8F37250140854513050540C1
:102C300037240140EFE06FD4930404408945268592
:102C4000EFE02FE165DD13050440EFE00FE0B7B7DB
:102C5000000007A74722D37705D0B7B70000D3F706
:102C6000E71007A78722B7B70000D3F7E71807A731
:102C7000C722D3F7E71027AAF1906FD01F8CEFD2AD
:102C80009F894111930700087C82371501408D47C9
:102C90003EC44C00D147130505C03EC623130100B6
:102CA000EFE06FDC41016FD05F89EFD2DF86411129
:102CB00093070008371501407C824C00930780047D
:102CC000130505C03EC6231301002314010023157C
:102CD0000100EFE04FD941016FD03F86411102C69C
:102CE0001307F009B2476374F700410182800100C5
:102CF000B24785073EC6FDB7EFD2FF81411185453A
:102D0000214502C202C402C6EFE0DFA0930700041F
:102D1000371401407C828D473EC44C00C1471305E7
:102D200004C03EC6EFE02FD4930700087C824C001D
:102D3000D147130504C03EC6EFE0EFD2130504C02F
:102D400093050004EFE0CFDE93050008130504C0EF
:102D5000EFE00FDE41016FD04FFEEFD2CFFB371413
:102D60000140EFF0DFF1130504C093050008EFE028
:102D70002FDC130504C093050004EFE06FDBEFF0D8
:102D8000FFF5130504C093050008EFE0AFDAEFF09C
:102D9000FFF493050004130504C0EFE0AFD96FD032
:102DA000CFF9EFD24FF737140140EFF05FED130585
:102DB00004C093050004EFE0EFD7130504C09305AA
:102DC0000008EFE02FD7EFF07FF1130504C0930563
:102DD0000004EFE0EFD5EFF07FF093050008130556
:102DE00004C0EFE0EFD4EFF07FEF6FD00FF5EFD23C
:102DF000EFF0EFF09FEB37140140130504C093058B
:102E00000008EFE0EFD2EFF07FED130504C093056B
:102E1000000437190140EFE0AFD11304B00FEFF019
:102E2000FFEB930909C0930500084E85EFE0AFCF93
:102E3000AA8401E993050004130509C0EFE08FCFD0
:102E400001A87D141374F40F79FCEFF09FF585440D
:102E500026856FD0EFEDEFD20FEC3714014013054C
:102E600004C093050004EFE0EFCCEFF05FE1130541
:102E700004C093050008EFE0EFCBEFF03FE6130549
:102E800004C093050004EFE0AFCAEFF03FE59305FF
:102E90000004130504C0EFE0EFC96FD00FEAEFD2D2
:102EA0008FE737140140130504C093050004EFE0D9
:102EB0006FC8EFF0DFDC130504C093050008EFE0F6
:102EC0002FC7EFF0BFE1130504C093050004EFE046
:102ED0002FC6EFF0BFE093050004130504C0EFE038
:102EE0006FC56FD08FE5EFD20FE32A893714014009
:102EF000EFF0FFD8130504C093050004EFE08FC383
:102F0000A144130404C093178901E18793050008C5
:102F1000228563DD0702EFE0AFC1EFF03FDC9305F0
:102F200000042285EFE0CFC0FD14EFF03FDB9305F6
:102F300000042285060993F4F40FEFE0AFBF137984
:102F4000F90FEFF0BFD9E1F06FD02FDFEFE08FBEC8
:102F5000E9B7EFD2AFDA37190140AA89A144EFF0FF
:102F6000DFD40144130909C0930500044A85EFE04A
:102F70006FBCEFF0BFD6930500044A85EFE04FBB6E
:102F80000604930500084A851374F40FEFE0AFB907
:102F900001C505041374F40FFD1493F4F40FEFF05E
:102FA000FFD3F9F063970900EFF07FEF22856FD030
:102FB0002FD8EFF05FEADDBFEFD2EFD5797185450D
:102FC0000945EFE00FF785452545EFE0AFF493079E
:102FD0000002FC8237150140E1473ECE4C088D4788
:102FE000130505C03ECCEFE00FA837151A00854544
:102FF00013050580EFE04FB4B717002083A7071B28
:10300000096713070771B3D7E702370400402C00A4
:103010001305044023150100FD177C849307700CF1
:103020003EC6EFE0EFF9C167938707063ED00C106C
:103030009547130504402313F10223140102EFE026
:103040001F8713050440A145EFE07F94130504405A
:103050008545EFE03F92854513050440EFE01F9062
:1030600045616FD08FCDEFD20FCBB7B7000087A7E8
:103070000723B7B7000007A747235375F518B7B75D
:10308000000087A7872365474375E578D31715C0E8
:10309000BE85C207C1836373F700E5451397050139
:1030A000418395476373F7009545C2053705004096
:1030B000C18113050540EFE0FF8E6FD00FC8EFD23E
:1030C0008FC5371401409145AA8413050480EFE0B1
:1030D0006FA6EFF0BFC08945130504809DC4EFE0E3
:1030E0002FA5EFF0BFBF37140140130504809145B1
:1030F000EFE00FA4EFF09FBE914513050480EFE0D1
:103100006FA3EFF0BFBD6FD04FC3EFE0AFA2D1BF51
:10311000EFD26FC037140140130504808945EFE0FA
:103120002FA1130504809145EFE08FA0EFF01FBBA6
:10313000894513050480EFE0EF9FEFF03FBA6FD0B1
:10314000CFBFEFD2AFBB37140140AA89814413042B
:103150000480130A0008214991452285EFE08F9DE4
:10316000EFF0DFB7B3579A40B3F7370189452285AF
:1031700085C3EFE0EF9BEFF07FB691452285850494
:10318000EFE00F9BEFF09FB5E39824FD6FD04FBAAF
:10319000EFE04F9ACDB7EFD20FB8371401401305C7
:1031A00004808945EFE0CF98130504809145EFE056
:1031B0006F98EFF0BFB2130504809145EFE04F9791
:1031C000EFF0DFB1894513050480EFE0CF95AA84C5
:1031D000914513050480EFE0EF95EFF03FB03335F4
:1031E00090006FD08FB5EFD20FB3B71401401385A5
:1031F00004808945EFE0CF93214901449384048002
:1032000091452685EFE00F93EFF05FAD9145268560
:10321000EFE00F92EFF09FAC06048945268513740A
:10322000F40FEFE04F9019C1136414007D19137966
:10323000F90FE31709FC22856FD02FB0EFD2AFADA5
:1032400037140140130504808945EFE0AF8E130564
:1032500004809145EFE0CF8DEFF05FA8894513051D
:103260000480EFE0EF8CEFF07FA76FD00FADEFD2CF
:103270008FAA411185451145EFE0CFC9D1473714D9
:1032800001403EC699477C824C008D47130504805F
:103290003EC423130100EFD01FFD130504808945B0
:1032A000EFE00F89914513050480EFE06F8841013D
:1032B0006FD0AFA8EFD22FA6411102C42316010090
:1032C000EFF01FE513058008EFF0BFE7EFF0BFEC6C
:1032D00001C9EFF0BFF60544228541016FD0EFA58B
:1032E0001305C002EFF0FFE5EFF0FFEA09C5EFF0CC
:1032F000FFF40944D5B71945EFF0BFE4EFF0BFE99B
:1033000009C5EFF0BFF30D44C1BFEFF03FF33D45FA
:10331000EF108025EFF0DFDF13059008EFF07FE27C
:10332000EFF07FE72A84814441E91549EFF0BFEBD4
:103330003C00A69788A385040145EFF05FD8E3978A
:1033400024FFEFF05FEA0545EFF07FD7EFF01FEFC6
:1033500018869C8522075D8F931787002183D98F5C
:103360003884C207C18353F707D09317870021839E
:10337000D98FC207C183D3F707D0B7B7000087A69C
:10338000C723B7B70000D3F7D71087A60724B7B76E
:10339000000007A64724D3F7D718D3F7C70827AEEE
:1033A000F190B7B7000087A7C722D377F710D3F7FC
:1033B000D71827ACF1900DB7EFF05FE8114429BFA3
:1033C000938781939843636DA702D043B386C70068
:1033D0006316D50054413E85B296D4C35041B3061E
:1033E000C500631AD70083A601926306D700544331
:1033F0001843B29654C118C16303F50088C3828094
:10340000BA87C9B7EFD28F8F41112AC6EF00306853
:1034100083A7019293860192138641923245B9E7C0
:1034200037370020930787BD93F5F700130787BD53
:1034300081C51387F700419B9385819323A20500E3
:1034400098C191659385057FAE97C19B23A2070024
:1034500023A00700B385E7409CC21CC323A6B192FA
:1034600023A4B192B70700804CC31CC2032A0600F4
:10347000B377AA0085E39307F5FF3957636CF7002C
:103480009307050113F7F7002DCF13F707FF410747
:1034900063E8E706814435A822872E84ADA858C189
:1034A0005CC0EFF0FFF158409386C1929042B307A1
:1034B000E94023A0F90063F3C7009CC23367EA0028
:1034C0009387019358C09843C10423200400050743
:1034D00098C3EF00F07493F7F400D1C7A167938706
:1034E00007807390073037B6000037B50000130629
:1034F00086249305001113050527EF20804701A0BE
:10350000BA8703A9819293898192E365F9F803A4AC
:1035100081931387819350406374F6000C40ADFD96
:103520009442E38986F61440044314C33307F640FB
:1035300093060002E3F9E6F63305F4009376F5000E
:10354000B9DEA167938707807390073037B6000014
:1035500037B50000130686249305F00C13050527E4
:10356000EF20204101A0268541016FC07FFC49CD9D
:10357000EFC27FFA032745FF83A741922A84B376DF
:10358000F7009DE2A167938707807390073037B6F5
:10359000000037B50000130686249305401213057A
:1035A0000527EF20003D01A0832605FF9DC2A167EE
:1035B000938707807390073037B6000037B5000057
:1035C000130686249305501213050527EF20603A51
:1035D00001A093C7F7FFF98F232AF5FEEF00304BC8
:1035E000938781929443032744FF130504FF369782
:1035F00098C3EFF0FFDC938741939843050798C386
:10360000EF0010626FC07FF3828003A581928280F9
:10361000B7E700E041572387E7402386E740B7F745
:1036200000E023A0070023A20700814694C70147BA
:10363000D8C7371700208325071B1307401F814673
:1036400033D6E5023D4790CBD4CB98C38280EFC2FE
:103650009FEC411102C6F32750303EC6B2470D47DA
:103660008D8B6384E702A16793870780739007308F
:1036700037B6000037B50000130646299305600BE6
:1036800013050527EF20E02E01A0B78700209387C0
:103690000700BD8B9DC3A167938707807390073098
:1036A00037B6000037B50000130646299305B00B66
:1036B00013050527EF20E02B01A0EFF07FF5B7E71A
:1036C00000E0056723A0E710116723A0E71023A8F7
:1036D0000180EFC0FFC2014541016FC01FE65D716F
:1036E00082E686E48AE28EE012FE16FC1AFA1EF8E2
:1036F0002AF62EF432F236F03AEE3EEC42EA46E892
:1037000072E676E47AE27EE073110134A167938772
:10371000078073900730B7F700E023A20700EF009F
:10372000303811C5B7E700E0116723A0E720A16793
:103730009387878873900730731101343660A660D1
:10374000166186617272E2725273C2733275A2752B
:10375000127682767267E2675268C268326EA26E33
:10376000126F826F616173002030A16793870780B9
:1037700073900730938701819843050798C382802F
:10378000138701811C438DE7EFC2FFD8A1679387A0
:1037900007807390073037B6000037B50000130676
:1037A00046299305201013050527EF20801C01A052
:1037B000FD171CC391E7A167938787887390073033
:1037C0008280930785007D575CC118C55CC51CC904
:1037D0002320050082802328050082805C419847D1
:1037E000DCC198C598474CC38CC71C4188C9850764
:1037F0001CC182809841FD5693078500631ED70047
:103800001C49D843D8C10CC79CC5CCC31C4188C92E
:1038100085071CC18280B687D4439042E37DC7FEF2
:10382000CDB7544118451C4998C654C3D44363933B
:10383000A600D8C39843232805007D1798C3884362
:103840008280EFC25FCD41112AC6EFF01FF23245F0
:10385000005DEFF0FFF21335140041016FC0FFCDA2
:10386000EFC27FCB32893041045D2A8409EE1C41CE
:10387000014591E70844EF108005232404008504E6
:1038800004DC6FC09FCB631009024841EF10206534
:103890005C4038400145BA9718445CC0E3E1E7FE5C
:1038A0001C405CC0E9BF4845EF1060633C40584491
:1038B0001440B307F0403E9758C46375D7001844CE
:1038C000BA975CC489470145E31BF9FACDD8FD14CA
:1038D0007DB7304115C2EFC21FC458451445AA87B1
:1038E000329758C56364D700184158C52E85CC4718
:1038F000EF10E05E6FC07FC48280EFC2DFC12A8418
:10390000EFF0BFE68344540413094402E204E18467
:1039100063489002FD57A302F404EFF07FE6EFF056
:10392000DFE48344440413090401E204E1846345B1
:103930009002FD572302F404EFF09FE46FC0FFBF35
:103940005C50E9DB4A85EF00505C19C1EF007076EE
:10395000FD14E204E1846DBF1C48E1DF4A85EF00FD
:10396000D05A19C1EF00F074FD14E204E184C1B72C
:10397000EFC27FBA41111DE1A16793870780739061
:10398000073037B6000037B500001306C62B930585
:10399000001113050527EF10D07D01A05C5D2EC638
:1039A0002A84BDC73841B3B7E702BDE3EFF0FFDBC0
:1039B0003040585C1440232C0402B307E602B245A1
:1039C00054C03387F600918FB6975CC4FD5723022D
:1039D000F40418C4A302F4049DE11C4899CB130518
:1039E0000401EF00905211C5B7E700E0116723A072
:1039F000E720EFF0FFD8054541016FC01FB4130564
:103A00000401EFF01FDC13054402EFF09FDBD5B794
:103A1000A167938707807390073037B6000037B5EA
:103A200000001306C62B9305501413050527EF104D
:103A3000507401A0EFC23FAE411131C1B3B7A5022E
:103A4000AA8495EF3305B502930770FB63E9A702DB
:103A5000130585042EC6EFF0FF9A2A8409CDB245DE
:103A6000AA8799C1930785042CC01CC044DC8545F6
:103A70002285EFF0FFEF228541016FC01FACA167E7
:103A8000938707807390073037B6000037B5000082
:103A90001306C62B9305601C13050527EF10706DE8
:103AA00001A0EFC2DFA4011132C61DE1A167938717
:103AB00007807390073037B6000037B50000130653
:103AC000C62B9305E03213050527EF10906A01A07D
:103AD0002A842E89B6848DE53C419DC3A1679387D6
:103AE00007807390073037B6000037B50000130623
:103AF000C62B9305F03213050527EF10906701A040
:103B000089476398F402585C85476304F702A1670C
:103B1000938707807390073037B6000037B50000F1
:103B20001306C62B9305003313050527EF107064A9
:103B300001A0EF00905815E5B247014C85C7A16779
:103B4000938707807390073037B6000037B50000C1
:103B50001306C62B9305303313050527EF1070614C
:103B600001A0014C094BFD59930B040137EA00E019
:103B7000916AA5A8B24789E7EFF09FC0014555A01B
:103B800063150C002808EF001046EFF07FBFEF0030
:103B90000070EFF09FBD83474404E207E187639420
:103BA00037012302040483475404E207E187639446
:103BB0003701A3020404EFF0BFBC6C002808EF003B
:103BC000704335EDEFF07FBA185C5C5C631EF70460
:103BD000EFF01FBBB2455E85EF00D0272285EFF0E6
:103BE000DFD1EF00F00329C9054CEFF01FB8185CD6
:103BF0005C5C6364F700E39F64F72686CA852285D0
:103C0000EFF01FC65C5089C713054402EF00F02F88
:103C100011C5B7E700E0116723A0E720EFF05FB61A
:103C2000054505616FC03F90EFF09FB52285EFF02D
:103C3000DFCCEF00E07E4DBF23205A2175B72285EF
:103C4000EFF0BFCBEF00C07D15BFEFC25F8A01115F
:103C500032C61DE1A167938707807390073037B69E
:103C6000000037B500001306C62B93051055130549
:103C70000527EF10105001A02A84AE898DE53C4144
:103C80009DC3A167938707807390073037B6000004
:103C900037B500001306C62B9305505513050527AD
:103CA000EF10304D01A0EF00504115E5B24701493A
:103CB00085C7A167938707807390073037B60000E8
:103CC00037B500001306C62B9305A055130505272D
:103CD000EF10304A01A001497D5A930A440237EBA4
:103CE00000E0916B8DA8B24789E7EFF07FA901450D
:103CF00061A8631509002808EF00F02EEFF05FA817
:103D00007923EFF09FA683474404E207E187639499
:103D100047012302040483475404E207E1876394C4
:103D20004701A3020404EFF0BFA56C002808EF00D0
:103D3000702C25E52285EFF0DFB031C9B2455685FC
:103D4000EF0050112285EFF05FBBEF00606D19E1CD
:103D500023207B210549EFF05FA1045CC9D4CE8507
:103D60002285FD14EFF0FFB604DC1C4899CB130547
:103D70000401EF00901911C5B7E700E0116723A017
:103D8000E720EFF0FF9F054505616FC0CFF9228561
:103D9000EFF0BFB6EF00C06875BF2285EFF0FFB54A
:103DA000EF0000682285EFF0DFA94DD589B715E552
:103DB000EFC26FF6A167938707807390073037B61D
:103DC0000000856537B500001306C62B938585ACCA
:103DD00013050527EF10F03901A09DCD377600209F
:103DE0009306863D814701471306863D214883A8F7
:103DF00046006398A80093173700B2978CC3C8C3D6
:103E000021A891E783A8060063930800B6870507F9
:103E1000A106E31E07FDFDF38280EFC2CFEF411143
:103E20002A842EC632C4EFF05F94834744047D5742
:103E30002246E207E187B2456394E70023020404C7
:103E4000834754047D57E207E1876394E700A302A8
:103E5000040432C62EC4EFF0BF921C5CA245324669
:103E600089E713054402EF0030032285EFF0FFA835
:103E700041016FC08FEC138741941C439443938797
:103E8000419681E67D5798C382801843584718436E
:103E9000DDBFEFC2AFE69384019483A941972A84E2
:103EA0009C4088404111A388070411052EC6EFF0FD
:103EB0005F977D5793870194B245631CE40295C9CF
:103EC000B7770020938707589440D84398C6104787
:103ED0009440D0C694401047910654C29440910635
:103EE00014C798405CCB9843050798C341016FC045
:103EF0002FE498434E9440C36379340103A5819421
:103F00008C439105EFF01F8FD5B703A541948C43E7
:103F10009105EFF03F8E938741969843E378E4FC58
:103F200080C3E9B7EFC28FDD377400201304445912
:103F3000938401959C40EDDFEFF03F835C4403A93F
:103F4000C70013054900EFF0DF8D1387C1941C43B0
:103F5000FD171CC39C40FD179CC0EFF07F8203251A
:103F60000903EFF0CFE04A85EFF06FE0D1B7EFC281
:103F70000FD813192600AA8A4A852E8A368BBA8B47
:103F8000BE89EFF02FC81DC1AA8413054005EFF0CC
:103F90006FC72A8409C904D98147C146631A0A0038
:103FA000230A050225A02685EFF06FDC7D5571A25E
:103FB0003307FA00030707003306F400230AE6027A
:103FC00001C78507E396D7FEA3010404B94763F44C
:103FD0007703A167938707807390073037B6000097
:103FE00037B500001306062D930570391305052714
:103FF000EF10301801A0130A4400528523267403E1
:104000002322740523240404EFF0EFFC130584013C
:10401000EFF06FFC3D471305C9FF33077741269545
:1040200000C818CC40D023060404A30604042307C8
:104030000404A307040423080404A30804045A8600
:10404000D6854199EFC0CFBB08C06384090023A087
:104050008900EFF08FF19387C1949843B7790020DE
:10406000050798C313870194184393840194138917
:1040700089416316070C80C0984385476312F70691
:1040800093898941930AC9124E85D109EFF06FF3E4
:10409000E39C3AFF37750020930A455413054554B5
:1040A000EFF02FF2377500209309855513058555DC
:1040B000EFF02FF1377500201305C556EFF06FF0C4
:1040C0003775002013054559EFF0AFEF3775002025
:1040D00013050558EFF0EFEE23A2519523A4319577
:1040E000938781959843050798C31387C1955C54BE
:1040F000144363F3F6001CC35147B387E702CA9722
:10410000D843144718C454C4144723A24601232497
:10411000470198435CC8050798C3EFF06FE683A793
:104120000197054599CB9C40D8575C546377F700BD
:10413000B7E700E0116723A0E7206FC0CFBE83A7D9
:104140000197D9FF9C40D8575C54E3EBE7F880C057
:1041500041BFEFC24FBC2A84EFF02FE1938401945A
:1041600011E08040130944004A85EFF08FEB1C54A6
:1041700089C713058401EFF0CFEA938781959843AF
:10418000050798C39C406394870637750020CA854D
:1041900013054559EFF08FE4938701959843050780
:1041A00098C3EFF0EFDD9C40638887000858EFF07C
:1041B0000FBC2285EFF0AFBB83A70197B1C79C402E
:1041C0006394870483A741959DCBA167938707805C
:1041D0007390073037B6000037B500001306062D80
:1041E0009305C04D13050527EF10A07801A0938714
:1041F000C19498437D1798C3EFF0FFC75DB7B7E749
:1042000000E0116723A0E7206FC02FB3EFC2AFB06B
:10421000B7B50000374500009387019601478146F6
:10422000130600109385452E130545F2EFF03FD499
:10423000054463188502EF00F02063148502A1672E
:1042400093870780739007307D5723A2E19623A8B8
:10425000A19623AA0196EFF08FBF83A741816FC07B
:10426000CFADFD57E31BF5FEA167938707807390E1
:10427000073037B60000856537B500001306062DF8
:104280009385058413050527EF10A06E01A0938781
:1042900041959843050798C3828003A54197828082
:1042A00083A7419563970716EFC2EFA693874197BF
:1042B0008043050480C331E49387419498431843B5
:1042C00005C7A167938707807390073037B6000052
:1042D000856537B500001306062D938575AC13056B
:1042E0000527EF10006901A01387819494431043C0
:1042F00090C314C3938781969843050798C3EFF042
:104300009FB7938741969C43377700201386419649
:10431000130787419385019401456373F4029C411F
:10432000D146DC57B387D7023E971843854763F3DE
:10433000E700054583A7819791C305456FC0EF9FAF
:10434000514F938741949443944281E6FD571CC298
:10435000F9B79C43DC47DC47D4436374D40014C2F0
:104360007DBF83A8870003A8C700D44B13834700F1
:1043700023A408012322180183A84600639468003F
:1043800023A2060103A8060023AA07007D1823A084
:104390000601945795CA03A8C70183A8070283AFF3
:1043A00046002324180183A8070223A208011388CA
:1043B000870163940F0123A2160103A8060023A41A
:1043C00007027D1823A006019386C19503A8C702A2
:1043D00083A8060063F4080123A00601B306E803DE
:1043E000BA9683A8460083AF880023A4170123A6AA
:1043F000F70183AF880023A26F0023A46800D4CB09
:104400009C4285079CC29C41DC57E36CF8F2054551
:104410000DBF9387C19698430145050798C38280D5
:10442000EFC2CF8D138441951C40411185E7A167F0
:10443000938707807390073037B60000856537B5DE
:1044400000001306062D9385358B13050527EF1005
:10445000405201A0EFF06FB11C40FD171CC01C4082
:1044600089CB01452AC6EFF0AFB1324541016FC09B
:104470002F8C83A7C194F5D7B7760020377500201D
:1044800081479386C65613058541D148854E59A864
:10449000DC46DC47CC4F9053985790C503A80702E1
:1044A0002322B80003284700938587016313B800CF
:1044B00050C3104323A407027D1610C38C47D04776
:1044C000D84B1388470090C54CC24C4363930501F9
:1044D00050C3104323AA07007D1610C31387C1954C
:1044E000D0570C4363F3C50010C3330716032A9754
:1044F0004C4383AF85008CC723A6F70183AF8500AB
:1045000023A20F0123A405010C43D8CB85050CC3BE
:1045100013870194184358576366E6001387819701
:104520002320D70198422DF799C3EFF0DF9413872A
:10453000C19604431384C19689CC8549EFF05FD6B8
:1045400009C59387819723A03701FD14E5F823203F
:10455000040083A78197E38607F0B7E700E01167BF
:1045600023A0E7200545FDBD19E5B7E700E0116789
:1045700023A0E7208280EFB21FFA83A74195411163
:104580009DC3A167938707807390073037B60000FB
:1045900037B500001306062D930590541305052723
:1045A000EF10203D01A02AC6EFF07FCE32458145B5
:1045B000EFF03F8EEFF0DFE611E5B7E700E01167BF
:1045C00023A0E72041016FB05FF703A741959387D0
:1045D000819701C7054798C3828023A007001387EE
:1045E000C19518431386C195B777002093878741FB
:1045F0005148B3060703B385D700884105C5C841B4
:10460000A106BE964841C8C16314D5005441D4C127
:10461000D146B306D702B697DC43D44723A0D19442
:1046200018C2828015E7EFB21FEFA167938707805A
:104630007390073037B60000856537B50000130664
:10464000062D938525C013050527EF10803201A0A4
:104650007D1745B7EFB23FEC05E5A167938707806B
:104660007390073037B60000856537B50000130634
:10467000062D9385C5C113050527EF10802F01A0D6
:104680002E8483A50194E105EFF0CF968545228520
:10469000EFF03F806FB07FEAEFB2FFE72A8705E5D2
:1046A000A167938707807390073037B60000856550
:1046B00037B500001306062D938525C5130505277C
:1046C000EF10202B01A09387019454432E858C4337
:1046D00003A88600D4CD8C4323A0050303A80700BC
:1046E0008C46610823A2050103A807009C436108CA
:1046F00023A4060198D71C4385071CC311C27D550E
:10470000B285EFF00FF96FB05FE35C45DC4795E7EA
:10471000EFB27FE0A167938707807390073037B6C9
:104720000000856537B500001306062D938525C862
:1047300013050527EF10E02301A0D04F945398579D
:104740009385870114C6D0C250436313B60054C387
:10475000144323A40702FD1614C303A74195D4579D
:1047600035E78C47D047D84B90C5D04748434CC21B
:10477000938547006313B50050C3104323AA070075
:104780007D1610C31387C19510436373D60014C3FD
:1047900051473386E6023777002013078741329767
:1047A0005043084690C7C8C708464CC10CC6D8CB72
:1047B0001C43014585071CC383A70194DC5763F69E
:1047C000D700054723ACE196054582803777002066
:1047D0001307C75650430846D0CF88D308464CC16C
:1047E0000CC698D7F1B783A781961CC183A74197C0
:1047F0005CC18280EFB23FD2411105E5A16793878A
:1048000007807390073037B60000856537B5000024
:104810001306062D9385D5CF13050527EF106015D8
:1048200001A085E5A167938707807390073037B6AD
:104830000000856537B500001306062D9385E5CF8A
:1048400013050527EF10E01201A02EC62AC4EFE0E1
:10485000DFF11387019483A641971C432245B2459B
:1048600083C7170599CB1C43A38807040544EFE0D1
:104870003FF1228541016FB05FCC9C417D570144DF
:10488000E387E7FE03A681960328050058416307E6
:10489000C80063E5E60023A00500C9BF3386E640F3
:1048A000E37BF6FE958FBA979CC1EFF0DFF30144EE
:1048B0007DBF054723ACE196828083A7019705451C
:1048C00091C703A54195133515000605828011E5B2
:1048D0000145828001456FB05FC6EFB2DFC383A799
:1048E00001942A846385A702A16793870780739048
:1048F000073037B60000856537B500001306062D72
:104900009385F50413050527EF10A00601A0BC4709
:1049100085E7A167938707807390073037B600005B
:10492000856537B500001306062D9385050513052B
:104930000527EF10000401A054557841FD173CC530
:10494000E38AE6F8C1FB930445002685EFE07FED9E
:104950007C403D471D8F18CC1387C19514435CD410
:1049600063F3F6001CC351473387E702B777002093
:10497000938787410545BA97D843144718C454C450
:104980001447C4C204C798435CC8050798C3A1B7BD
:10499000EFB27FB8EFE07FDD138481981C40B1E374
:1049A000377500201309855A1305855AEFE07FE11A
:1049B000377500209304C55B1305C55BEFE07FE00E
:1049C00023AE21970146C145114523A09198EFF0F0
:1049D0006F8608C019C5B7B5000093850531EFF0A3
:1049E0000FBDEFE0FFD96FB05FB5EFB2DFB24CC1E2
:1049F00008C9AA876360B602184D158E054563790C
:104A0000E6009385470003A50198EFE0BFDE01456E
:104A10006FB0BFB26375D6000545E3FBD5FE938545
:104A2000470003A5C197D5B7EFB2FFAE2A84AE8485
:104A300032890C4CA6864A86A6952285EFF0FFFAAD
:104A400019E16FB09FAF1C4C2285BE941C50829719
:104A5000CDB7EFB25FAC83A7C1974111AA84DC4701
:104A60002EC6C04713054400EFE0BFDB8347440276
:104A7000324613F7470019CBA6852285EFF0DFFAFF
:104A80001C502285829741016FB03FABF99B2302F6
:104A9000F402FDB7EFB23FA89386C19798421C433A
:104AA00081EB93870198904398C390C26FB0FFA8A1
:104AB0005C47FD558843EFF0DFF9F9BFEFB23FA344
:104AC0002D6941111309C92E83A7C197984329CB9A
:104AD000DC47814C03AC0700EFF06FFBEFF0EFFB1E
:104AE00083A741982A8493844198138A8198636CA0
:104AF000F50288C063800C0483A7019890431336A5
:104B0000160003250A00B3058C40EFF00FB1EFF05B
:104B10003F9119EDB7E700E0116723A0E72009A84E
:104B2000854C014C55BFEFF0FFF680C0EFF05F8F72
:104B3000214C0DA00146E36685FDEFF07F8EA28536
:104B40006285EFF01FF1EDB79247B2458297824739
:104B500063DD070003250A0001468A85EFF0EF8E2A
:104B600025D582472245E3C107FE22445C489DE3E8
:104B7000EFF0AFF29C40AA8C6374F500EFF09FF168
:104B8000824723A09401FD17E366FCFC8A07CA97BD
:104B90009C43828713054400EFE0BFC8D1BF834721
:104BA00044020C4C924693E717002302F4026686F7
:104BB000B6952285EFF07FE351DD8347440213F77A
:104BC000470001CF1C4C924566862285BE95EFF0CA
:104BD000BFE51C5022858297B5BFF99B2302F402E2
:104BE000CDBF83474402F99B2302F402A5B7834754
:104BF0004402924593E717002302F4020CCC9DE196
:104C0000A167938707807390073037B6000037B5E8
:104C10000000130686319305903513050527EF0034
:104C2000505501A0E6866686E6952285EFF0FFDB0B
:104C300015B78347440213F7270055F72285EFE0A5
:104C40001F9309BFEFB23F8DEFF09FD483A78198E8
:104C50009DE3A167938707807390073037B6000004
:104C600037B500001306863193059011130505270B
:104C7000EF00305001A0B7B5000037550000938712
:104C8000C1983947814613060010938505331305F3
:104C9000C5ABEFF0CFAD55DD6FB03F8AB717002041
:104CA00083A7071B37177A0013070720B3D7E7023C
:104CB00093F7F70F2389F1981307803EB387E70234
:104CC0002398F1988280EFB21F852A841165011123
:104CD00085451105EFC01FA4930700207C8237157E
:104CE00001408D473EC44C00E147130505803EC698
:104CF000EFC06FD722C837440140B70708000C083F
:104D0000130504803ECC02CA231E0100EFC0DFC998
:104D1000854513050480EFC01FD205616FB0FF8188
:104D2000EFB2CFFDB7440140AE893289014493848C
:104D30000480634524014A856FB08FFF930500040A
:104D40002685EFC01FD57DD9B387890083850700ED
:104D500026850504C205C181EFC0BFD2D9BF138724
:104D600081811C43B77600209386465D3E95636B38
:104D7000D500B78600209386068063E5A60008C3A9
:104D80003E858280FD57EDBF411106C622C426C272
:104D9000D30705E07327200013D577011375F50FAE
:104DA00013071500139497001377E70F258093D40A
:104DB000F7011DC393573400130505387604B20775
:104DC0005205B183C98FFE04C58F2285BE85B240CE
:104DD00022449244410182800DE935C4228549284C
:104DE000A94763C1A7082D47098F9307550133577A
:104DF000E4003314F4009317C70013079038330509
:104E0000A740B1831375F57F5DBF15C8370708004C
:104E100093573400D98F370710007D17131694006D
:104E20009316D401F98F635306027D8F9397F40193
:104E3000B704F07FD98CC58F3685BE8549BF130571
:104E4000F07F8147ADBF0145814795BF7D8F939727
:104E5000F401B704F07F458FD98F3685BE85736026
:104E60001800B5B7130755FF3317E400014461B7C5
:104E7000C167637CF5029307F00F1307000263EB31
:104E8000A700976700009387674BAA97882333058D
:104E9000A74082802181976700009387274AAA97BD
:104EA000882361473305A7408280B7070001636DFF
:104EB000F50061819767000093874748AA97882388
:104EC00021473305A740828041819767000093877F
:104ED000E746AA97882341473305A7408280B3C796
:104EE000A5008D8B3307C50081E78D4763EDC700B3
:104EF000AA87637EE508942185078505A38FD7FEE1
:104F0000E3EBE7FE828093763500AA8789CA942175
:104F100085078505A38FD7FE93F63700C5BF937627
:104F2000C7FF138606FE63F0C70683A3050083A2AE
:104F3000450083AF850003AFC50083AE050103AE16
:104F4000450103A3850183A8C5019385450223A0DC
:104F5000770003A8C5FF23A2570023A4F70123A6C7
:104F6000E70123A8D70123AAC70123AC670023AE1A
:104F700017019387470223AE07FF75B7904191074A
:104F8000910523AEC7FEE3EBD7FEE3E6E7F68280AA
:104F9000797122D44AD052CC56CA5AC806D626D2E3
:104FA0004ECE3A8AAE8A32843689428B01476358A4
:104FB0000600370700803344C7001307D00298A3C8
:104FC00093F4F8FD930760048D466388F40093071B
:104FD000500489466393F4000509DA879308C100F9
:104FE000130881004A87D6852286EF00906A9307CE
:104FF0007004AA896396F400137A1A00630A0A04FB
:1050000093076004338A29016397F40203C70900F8
:1050100093070003631EF700014681465685A2856B
:10502000EF40803411C585473389274123202B0168
:1050300083270B003E9A014681465685A285EF40A4
:10504000A03211E152C613070003B24763E24703DF
:10505000B2474257B2502254B38737411CC34E85E2
:1050600092540259F249624AD24A424B45618280C7
:105070009386170036C698A3C9BF10A11307250051
:105080009307B00263D60500B305B0409307D00282
:105090001CB1A54763DAB70441119307F100BE883C
:1050A000294813033006B3E605031386F7FF9386FA
:1050B0000603A38FD7FEB3C60503634DB3009386E3
:1050C0000603F917A30FD6FE63E917013305A740BE
:1050D00041018280B287B685F9B7850783C6F7FF9D
:1050E0000507A30FD7FECDB79307000313074500AD
:1050F000938505033CA12CB13305A740828019712B
:105100003ACE86DEA2DCA6DA2E84CAD8CED6D2D497
:10511000B689DAD0DECEE2CC3289D6D2E6CAEAC887
:10512000EEC6AA84EF10D052832B05005E85EF00F7
:10513000701E032B0400724702DC93760B102A8C3E
:10514000034A84011C43F1CA9386470014C39C435D
:10515000081098433AD0D8433AD298473AD4DC471B
:105160003ED6EF50A07128C46CC4832CC4041767CA
:1051700000001307A72C832A8404032D0700832D26
:10518000470093971C0085836A86EE865685BE8508
:105190003ECEEF50C04B41EDF2476A86EE86568513
:1051A000BE85EF4040316354A008014681465685D4
:1051B000E685EF404030635605009307D002A30117
:1051C000F40493077004976A0000938AAA2763F691
:1051D0004701976A0000938A2A27137BBBFF8D47FC
:1051E000232064011CC8014B4E87CA867018A28513
:1051F0002685C12EFD5C631E95157D55F6506654BF
:10520000D6544659B659265A965A065BF64B664C02
:10521000D64C464DB64D096182809D07E19B938631
:10522000870014C39843DC4338C47CC43DBF568612
:10523000E6865685E685EF50804111CD93077004D0
:10524000976A0000938A8A20E3F947F9976A000079
:10525000938A0A2059B75C407D57137DFA0D6395F8
:10526000E70899475CC0544013670B403C18D6854B
:105270003EC018C09307310302C2D288130841030D
:1052800066862685EFF0DFD093077004AA8AD25590
:10529000631BFD00F55763C5F5005C4063D8B70894
:1052A000791A137AFA0F9307500663E64705FD153E
:1052B0005286130504052EDAEFF03FDC625785466F
:1052C0002A8BB307A7001CC863C5E6001840058BEE
:1052D00019C385071CC883473103E38707F0930789
:1052E000D002A301F40409B713077004E31DEDF61F
:1052F000BDFB854785BF93076006631BFA025C40D0
:10530000635BB0000CC881E71840058B09CF8507A7
:10531000AE971CC809A889E718408546058B19C3B4
:105320009386270014C82CCC014B75B7130A70065E
:10533000E25763C9F5001C400CC8858BEDD79387F5
:105340001500C1BF05476344B00009470D8FBA97E8
:10535000C9B71C4013F7074015E314485686CA85A1
:1053600026858299E30B95E91C40898B6396072477
:10537000F2574844E354F5E83E8549B51307500613
:10538000637B471928446C4401468146EF30D07D49
:1053900039E98546176600001306C60BCA852685BF
:1053A0008299E30C95E55257E2576345F7001C409C
:1053B000858BDDDBE2865E86CA8526858299FD5770
:1053C000E30DF5E2014A930AA4017D5BE257FD1764
:1053D000E35CFAF885465686CA8526858299E30EEF
:1053E00065E1050AE5B7D2576346F00685461766BC
:1053F000000013062606CA8526858299E30F95DFED
:10540000D2576257D98F81E71C40858BB1DFE28686
:105410005E86CA8526858299FD57E300F5DE014A3E
:10542000130BA401FD5BD257B307F040634BFA00A6
:10543000E2565686CA8526858299FD57E316F5F20F
:105440006DBB85465A86CA8526858299E30775DB3A
:10545000050AD1BF3C4C625A63D347013E8A635A66
:105460004001D2865686CA8526858299FD57E30675
:10547000F5D8814C130DA401FD5D09A885466A8607
:10548000CA8526858299E30AB5D7850C032B840546
:10549000D28763530A008147B307FB40E3C0FCFE99
:1054A0005257E257634DF7021C40858B8DEBE25754
:1054B0005257338AE7406344EB00338A6741635BAA
:1054C0004001D28633866A01CA8526858299FD57B6
:1054D000E305F5D2814A130BA401FD5B15A0E2861A
:1054E0005E86CA8526858299FD57E312F5FC31B3A5
:1054F00085465A86CA8526858299E30075D1850A34
:105500005257E257998F528763530A000147998F88
:10551000E3C0FAFE91BDE25605476344D700858B90
:10552000B5C785465686CA85268582997D5AE30683
:1055300045CDE2865E86CA8526858299E30F45CBF6
:1055400028446C4401468146EF3010621DC9E25682
:1055500013861A00CA85FD1626858299E30F45C970
:10556000DA8613060405F9B585465686CA8526856A
:105570008299E30475C9050AE257FD17E346FAFE6E
:10558000C5B7014A930AA401FD5BFDB7854656865F
:10559000CA8526858299E31595FD85B1854656868F
:1055A000CA8526858299E30A65C5050A5C44725757
:1055B000998FE345FAFE6DBB014A930A94017D5B26
:1055C000F5B7797156CA9C49BA8A984522D426D231
:1055D0004ECE52CC06D64AD05AC85EC6AA892E8470
:1055E000B284368A63D3E700BA879CC00347340489
:1055F00019C385079CC01C4093F7070281C79C40D4
:1056000089079CC00329040013796900631A090003
:10561000130B9401FD5B5C449840998F634CF90433
:105620001C408346340493F70702B336D000A5EB41
:1056300013063404D2854E85829AFD576303F50420
:105640001C4011469840998B544481446397C7008D
:10565000B384E64063D3040081441C441848635477
:10566000F700998FBE94014969047D5B6398240516
:10567000014509A885465A86D2854E85829A631EC1
:1056800075017D55B250225492540259F249624A32
:10569000D24A424BB24B456182800509ADBF330708
:1056A000D40013060003A301C704034754049387DF
:1056B0001600A2978906A381E7049DBF854622862E
:1056C000D2854E85829AE30E65FB050945B779714F
:1056D00022D426D24AD04ECE06D652CC56CA5AC86A
:1056E000B689942D930790063289AA842E84138656
:1056F0003504638DF60263E2D7069307800563875E
:10570000F61863EDD700638F062093073004638F8C
:10571000F60A930A24042301D404D1A09307300687
:105720006386F60A93074006E395F6FE1C4008439D
:1057300093F6070893054500CDC61C410CC363D8FA
:1057400007001307D002B307F040A301E4049766F3
:105750000000938666D029476DA8930700076383EE
:10576000F61663E5D7029307E006638AF6189307F7
:10577000F006E390F6FA0C401C4313F80508138575
:1057800047006308080608C39C438DA89307500789
:10579000E383F6FE93078007638AF61293073007C8
:1057A000E399F6F61C43D04181459386470014C324
:1057B00083AA07005685EF10A07A01C5330555412D
:1057C00048C05C401CC8A301040461A81C43930AA0
:1057D0002404938647009C4314C32301F4048547A3
:1057E000D5B793F607041C410CC3B1DAC207C187D1
:1057F000B9B793F5050408C3C1D99E231307F00672
:105800006387E60E97660000938606C52947A301C5
:1058100004044C400CC463C5050008406D9908C0E1
:1058200099E3B28A89CDB28AB3F5E702FD1AB6953B
:105830008C212380BA00B3D5E70263F0E70CA147BF
:10584000631EF7001C40858B91CB58401C4863C7F2
:10585000E70093070003A38FFAFEFD1A33065641B3
:1058600010C84E87CA867000A2852685EFF07FD5C6
:105870007D5A631D450B7D55B250225492540259F6
:10588000F249624AD24A424B45618280A382D504E2
:1058900097660000938646BC0C40084313F8050841
:1058A0001C411105630D080208C313F7150001C759
:1058B00093E505020CC04147B9FB0C4093F5F5FD9B
:1058C0000CC0B1B79C4193E707029CC193078007C6
:1058D000A302F40497660000938646B975BF13F8D7
:1058E000050408C3E30308FCC207C1837DBF9766B4
:1058F0000000938666B6214719BFAE8735B794413D
:105900001C43CC4913F806081385470063060800BA
:1059100008C39C438CC339A008C393F606049C4378
:10592000F5DA8EA323280400B28A25BF14485686D0
:10593000CA8526858299E30045F51C40898B8DE751
:10594000B2474844E35AF5F23E853DB78546568650
:10595000CA8526858299E30065F3050A5C443247CF
:10596000998FE345FAFEE9BF014A930A94017D5BF2
:10597000F5B739713EDA2ED232D436D63AD842DC77
:1059800046DE9387C18122CC804326CA06CEAA84F4
:1059900011C41C4C81E72285EF1020340C445410B4
:1059A0002686228536C6EF202022F2406244D24469
:1059B00021618280011126CA4AC806CE22CC4EC679
:1059C00052C4AA842E8909C51C4D99E3EF10E0301A
:1059D0009C4C804481E72685EF10203097670000BB
:1059E0009387C7B1631BF402C0405E24A18BB1C78B
:1059F0001C48A1C7FD59294A1C4483450900FD17CD
:105A0000B1E91CC463DD07062286A9452685592213
:105A1000FD576308F502294535A097670000938775
:105A2000E7AF6314F4008044C9B797670000938719
:105A3000E7AAE31CF4FAC0444DBFA2852685212CB9
:105A400055D97D55F2406244D2444249B249224A76
:105A5000056182801CC4050963D70700184C63CA1E
:105A6000E700638845011C401387170018C08CA30A
:105A700061B722862685392AE31035F9D9B71C404B
:105A80001387170018C0294798A371B79387C1815E
:105A9000AA8588436FF01FF235713ECBA6DA36C770
:105AA0003AC942CD46CF9387C18186DEA2DC8443CA
:105AB00063DB05009307B0089CC07D55F650665423
:105AC000D6540D61828093078020FC822AC42ACCA0
:105AD000814799C19387F5FF3EC83ECE7401FD57BB
:105AE0002E8426852C00FC8336C2EF10D060FD5733
:105AF0006355F5009307B0089CC069D0A247238086
:105B000007006DBFAA87982185078505A38FE7FE4B
:105B10007DFB8280AA87850703C7F7FF6DFF33856A
