:040000006F108016E7
:100004000000000000000000EE050000F005000004
:100014000000000066110000000000000000000065
:1000240066110000661100000000000000000000DE
:10003400EA39000000000000000200000000000097
:1000440066110000661100006611000066110000D0
:1000540066110000661100006611000066110000C0
:1000640066110000661100006611000066110000B0
:1000740066110000661100006611000066110000A0
:100084006611000066110000661100006611000090
:100094006611000066110000661100006611000080
:1000A4006611000066110000661100006611000070
:1000B4006611000066110000661100006611000060
:1000C4006611000066110000661100006611000050
:1000D400661100006611000066110000F61C0000A5
:1000E4006611000066110000661100006611000030
:1000F4006611000066110000661100006611000020
:100104000000000066110000661100006611000086
:1001140066110000661100006611000066110000FF
:1001240066110000661100006611000066110000EF
:1001340066110000661100006611000066110000DF
:1001440066110000661100006611000066110000CF
:1001540066110000661100006611000066110000BF
:1001640066110000661100006611000066110000AF
:10017400661100006611000066110000661100009F
:10018400661100006611000066110000661100008F
:10019400661100006611000066110000661100007F
:1001A400000000000000000000000000000000004B
:0C01B4000000000000000000000000003F
:10020000130181F806C216C41AC61EC822CA26CC1B
:100210002ACE2ED032D236D43AD63ED842DA46DC76
:100220004ADECEC0D2C2D6C4DAC6DEC8E2CAE6CC46
:10023000EACEEED0F2D2F6D4FAD6FED8F3220030CF
:1002400096DA83A2C19523A02200F32510342EC094
:100250009305000273A0458003A1C18CEF40A06705
:1002600003A3C19503210300824273901234D65236
:10027000739002309240A2423243C2435244E2445D
:10028000724582551256A2563257C2575258E258FA
:1002900072598649164AA64A364BC64B564CE64C0E
:1002A000764D865D165EA65E365FC65F13018107DA
:1002B0007300203013000000130000001300000042
:1002C00013000000130000001300000013000000E2
:1002D00013000000130000001300000013000000D2
:1002E00013000000130000001300000013000000C2
:1002F00013000000130000001300000013000000B2
:1003000083A2C18C938202E07390023403A1C19551
:10031000024182403243C2435244E2447245825514
:100320001256A2563257C2575258E258725986494D
:10033000164AA64A364BC64B564CE64C764D865D61
:10034000165EA65E365FC65FD652A102739002307B
:10035000A2421301810782801300000013000000F5
:100360001300000013000000130000001300000041
:100370001300000013000000130000001300000031
:100380001300000013000000130000001300000021
:100390001300000013000000130000001300000011
:1003A0001300000013000000130000001300000001
:1003B00013000000130000001300000013000000F1
:1003C00013000000130000001300000013000000E1
:1003D00013000000130000001300000013000000D1
:1003E00013000000130000001300000013000000C1
:1003F00013000000130000001300000013000000B1
:10040000F322003093F272FF130380781203B3E2F9
:100410006200711523205500130585FA10C12115BE
:10042000232005009302000063870200711523203A
:100430000500FD12D5BF71150CC1828000000000BF
:1004400000000000000000000000000000000000AC
:10045000000000000000000000000000000000009C
:10046000000000000000000000000000000000008C
:10047000000000000000000000000000000000007C
:10048000000000000000000000000000000000006C
:10049000000000000000000000000000000000005C
:1004A000000000000000000000000000000000004C
:1004B000000000000000000000000000000000003C
:1004C000000000000000000000000000000000002C
:1004D000000000000000000000000000000000001C
:1004E000000000000000397101436EC619A0397187
:1004F00041536AC866CA62CC5ECE19A039710153F5
:100500005AD056D252D44ED64AD826DA22DC06DE4B
:1005100033016140828241114AC026C222C406C60C
:100520008282B24D4101024D924C224CB24B4101AC
:10053000024B924A224AB249410102499244224462
:10054000B240410182803D432A876373C30293779F
:10055000F700BDEFADE5937606FF3D8ABA960CC372
:100560004CC30CC74CC74107E36BD7FE11E2828036
:10057000B306C3408A069702000096966780A600DD
:100580002307B700A306B7002306B700A305B700EB
:100590002305B700A304B7002304B700A303B700E3
:1005A0002303B700A302B7002302B700A301B700DB
:1005B0002301B700A300B7002300B700828093F5A2
:1005C000F50F93968500D58D93960501D58D61B76E
:1005D000939627009702000096968682E78086FA17
:1005E0009680C1171D8F3E96E374C3F8A5B701A08E
:1005F000B707EFBE37E700E0938707083CC701A0C5
:10060000EFF2DFEFBD479304E0FD63EBB70A9147DC
:10061000B55463E7A70AAD67938707FE0A053E95C1
:100620001C41828737140140214A130404C09547B6
:10063000A95463E7C7082D6893172600130848FFDD
:10064000C2979C43828737140140130A00021304A7
:100650000440F1BF130A000437240140130404804E
:10066000F9B7C9C285476381F60809459307800237
:10067000A9546397A6040945A9546363E504138547
:1006800001823A9513F9F700C18B182199C3336998
:10069000E900B684B28AAE89EF30E03DB717024078
:1006A000984F336A470123AC4701984F9C4F630032
:1006B000F704ED54EF30803D21A0A954C147C5DEB9
:1006C0002685BDB5A954D147DDD6DDBFA954E14784
:1006D000DDD2FDB7A954F147D9DEDDB7A954814772
:1006E000D9DAF9BF914741BF9307800469B79D47A5
:1006F00063E83703144013972900BD47B397E70019
:1007000093C7F7FF3319E900F58FB367F9001CC0F1
:1007100018401C40E31FF7F863870A02814459BF61
:10072000138789FF54400A07BD47B397E70093C773
:10073000F7FFF58F3319E9003369F900232224010B
:1007400058405C40C1BF8547B39937016399F400B5
:100750002328340118481C48E302F7FC99BF894755
:10076000E39EF4FA232A340158485C48F5B7114A4D
:1007700037140140E5B5414A371401404DBDEFF251
:100780009FD94111B7B7000022E607A4070237142A
:1007900001408564130404C09384449C87A701939B
:1007A00085652285D317F4A099C7EF0010492685E7
:1007B000EF40400CE5B7EF009048D5BFEFF2BFD552
:1007C000EF103049EF203030530500F0371400208F
:1007D000EF20503A5145EF40E009EF10F04A19C5BB
:1007E000130784291C2393C717001CA35145EF400E
:1007F0006008E5B7EFF23FD25D71CAE2CEE052FE8B
:1008000056FC5AFAA2E6A6E45EF8EF109052B7172B
:10081000014013070002D8CB1307002098CBEF103C
:100820009062EF10B05CB7B40000B7B7000007A942
:10083000042087A9472037B40000530A2921D38A0E
:100840003921072B842007A70191D30700F0530615
:1008500029215387E7A019E353863921D30600F0F5
:1008600087A781935387F6A0D3064A2119E3D3863D
:100870005A21B717002003C787291377F70F631D85
:10088000070E8727842029464377F760D31707C0D0
:1008900093D6F74133C7F600158FB346C7023367C7
:1008A000C70263DD070437B600001306C620A9455A
:1008B0006800EF508052B7170020938707028387A4
:1008C000C7FBB1C383C6419137B600001306C622E9
:1008D000A9452808EF506050B717002093870702FA
:1008E000838747FB8DCB83C6519137B60000130633
:1008F000C623A9454810EF50404E2DA037B6000042
:100900001306C6216DB7B7B50000938545232808A7
:10091000EF506053D1B7B7B5000093854524481018
:10092000EF50605241691307F9FF93060006130662
:10093000000F81450145EF10F06978009306F9FF3B
:100940007D4681450145EF20400538089306F9FFB3
:100950007D46930500020145EF20200458109306C0
:10096000F9FF7D46930500040145EF2000031305C0
:10097000A00FEF303070C1BDC3F7676907A4419382
:1009800087A40193D39707C0294693D6F74133C76D
:10099000F600158FB346C7023367C70263D8070452
:1009A00037B600001306C624A9456800EF50E042A0
:1009B0008727842087AB0420A94637B600004374FC
:1009C000F4B813064626A9452808D31704C033E710
:1009D000D702B3C6D702EF504040D3F4740137B604
:1009E000000013060627D39604C021B737B60000CF
:1009F0001306862555BFEFF21FB20947814605460B
:100A0000814509455964ED3E1304F4F883A78190AC
:100A10001389819089E7EF3010392320A900EF3046
:100A20009038832709001D8D6364A400EF10B02166
:100A3000854537150140EF0050201305401FEF306A
:100A40007063854537150140EF00701F1305401F87
:100A5000EF30506265BFEFF21FAC1D71B71400207C
:100A6000054937B4000003A5442A7D568A85EF3036
:100A7000804EE31A25FF8A8513058427EF508023D3
:100A8000DDB735712EC332C536C72A8654019305AA
:100A90000006080886DE3AC93ECB42CD46CF36C6B0
:100AA000EF504042B717002003A5472A0C088146A3
:100AB0000146EF30C02FF6500D618280EFF2BFA5E6
:100AC000EF207065AA8537B5000013054502553F34
:100AD000B7170020B7B50000371500009387072A25
:100AE0001547814613060010938545031305659F3E
:100AF000EF30A07885476307F50037B50000130590
:100B000005044137EF203061AA8537B50000130591
:100B10008505853FB7170020B7B5000037150000E1
:100B20009387C72A15478146130600409385C5065B
:100B3000130565DDEF30607485476307F50037B551
:100B400000001305C507353FEF20F05CAA8537B5D7
:100B50000000130585093537B7B5000037150000CB
:100B60009387419015478146130600209385C50A57
:100B7000130585D7EF30607085476307F50037B5FB
:100B800000001305850BF53DEF20F058AA8537B519
:100B900000001305050DF535B7170020B7B50000A7
:100BA00037150000938787281547814613060020D4
:100BB0009385450E1305C5D4EF30206C8547630738
:100BC000F50037B500001305050F653DEF20B05463
:100BD000AA8537B50000130585106535B7170020C5
:100BE000B7B50000370500009387C7291547814630
:100BF00013060020938505121305457FEF30E0674B
:100C000085476307F50037B500001305C512953D0C
:100C1000EF207050AA8537B50000130545149535AF
:100C2000B7170020B7B500003705000093874729A4
:100C30001547814613060020938585151305C57B4E
:100C4000EF30A06385476307F50037B50000130553
:100C50004516053DEF20304CAA8537B50000130539
:100C6000C5170535B7B5000037150000938701900B
:100C7000154781461306002093850519130585CF76
:100C8000EF30A05F85476307F50037B50000130517
:100C9000C519C53BEF203048AA8537B500001305BC
:100CA000451BC533B7170020B7B500003705000056
:100CB0009387C72815478146130600209385851C16
:100CC0001305E577EF30605B85476307F50037B5BF
:100CD00000001305451D7533EF20F043AA8537B595
:100CE00000001305C51E713BB717002003A5072997
:100CF000EF30E0766FF07F84EFF2FF814111B7B7FC
:100D0000000022E607A40702B7B7000026E487A484
:100D1000C733B7B40000EF20A02107A50193EF402F
:100D2000C03A2A86AE8613850434A13B87A7019377
:100D300053859420D317F4A099E3530500F0EF20D6
:100D400060631305401FEF30F032F1B7EFF2AFFCF4
:100D5000EF00707037B40000EF10200807A5019174
:100D6000EF40A0362A86AE861305C400193B130552
:100D7000401FEF303030CDB7EFF24FF84111EF2088
:100D8000E07F5145EF30102F37B5000013050535D2
:100D9000CD3937B90000B7B90000EF209002AA851D
:100DA00009C913854936F1391305401FEF30902CDE
:100DB000EDB707A54193EF40403107A581932AC4C1
:100DC0002EC6EF4080302247B2472A86AE861305F2
:100DD00049374539D1BFEFF20FF437B50000411163
:100DE0001305052F79391305800C37140020EF30D7
:100DF000702813040402B7B4000037B90000EF10E4
:100E0000105F09C913054930AD3913054006EF30AD
:100E10007026F5B7EF203046EF10106AEF10106E15
:100E2000EF10D079832584FB0306C4FB832604FBE3
:100E3000030744FB2EC632C436C23AC0EF20104529
:100E4000024792462246B2451385C4311D39130527
:100E5000401F75BFEFF22FEC094529271145EF1010
:100E60000064D92AEF106055EF4000147165130536
:100E70000520EF4060190146930500064145EF202B
:100E8000306CB717002023A2A72A1DC1B717002076
:100E9000B7B50000371500009387872A19478146A8
:100EA0001306002093850528130565A5EF30E03C67
:100EB000EF10504437140140EF10907D8565130505
:100EC00004C0A52B13054006EF40A010130504C075
:100ED0008565B523B717002083A5071B37B500002C
:100EE0001305C528793E4121AA8537B500001305B1
:100EF000C529413EB7B5000037B500009385852A66
:100F00001305052BBD3EB7170020B7B500003715F8
:100F10000000938707291547814613060010938523
:100F2000C52C1305C5ABEF304035EF10C04C37B4BE
:100F30000000EF30605E1305842DA136EDBFB717BA
:100F400002409843B706FFF041111367170098C39A
:100F5000D84337060200758FD8C39843B706F7FE0B
:100F6000FD16758F98C39843B706FCFFFD16758F65
:100F700098C3D843B70601FFFD16758FD8C39843B1
:100F8000B70600ECFD16758F98C33707FF0098C7AA
:100F900023A6070202C402C69843C166558F98C3B0
:100FA000B716024005679C42F18F3EC6A2478507EF
:100FB0003EC4B24781E7A247E397E7FEB717024076
:100FC0009C431397E7006357070685473EC63247A1
:100FD0008547631FF704B7170240D843B706C1FF20
:100FE000FD16D8C3D843D8C3D84313670740D8C326
:100FF000D843758FD8C3D843B7062900558FD8C3B7
:101000009843B7060001558F98C39843931667001D
:10101000E3DD06FED843B7160240719BD8C3D84320
:1010200013672700D8C32147DC42B18BE39EE7FE5C
:101030004101828002C661BFB7160240D842B7178D
:1010400000201146318B9387071B6305C70021469B
:101050006308C70237177A001307072098C33717AA
:101060000240584311839376F70037070020130797
:1010700007003697142398433357D70098C38280CC
:10108000D842D442416649833D8BF18E1306270036
:1010900015CF3D47630FE6024147630FE602454720
:1010A00081456313E6004146A1E23747024003272A
:1010B0000780418B0DC737177A00130707203306C7
:1010C000C70290C3C9DD9843058349BF814549469E
:1010D000E1BF85453546C9BF81453D46F1B7371764
:1010E0003D0013070790E1BF37150240585593168E
:1010F000F700585563DF060411833D8B93061700F4
:1011000037177A00130707203357D70298C354556F
:10111000A182BD8A8DE295463307D702058398C325
:1011200037170240585794433D8B050733D7E602E3
:1011300098C3984369B705456394A600E546E9BF9F
:101140003D456396A600D1463387E602C9BF8906AE
:10115000E5BF3D8B9306170037177A00130707206A
:101160003357D702F1B701A09711002093818184F2
:1011700017F10120130101E917B500001305C59E01
:1011800097F5FF1F938505E81386818D63FAC500E7
:101190008322050023A0550011059105E3EAC5FE51
:1011A000170500201305850E97A50020938585C49B
:1011B0006377B500232005001105E36DB5FEFD4200
:1011C000739002BCFD4273904280B782000093820C
:1011D00002807390023097F2FFFF9382E2E293E283
:1011E000320073905230EFF09FD597020000938247
:1011F000A2C673901234730020305C413707F1E0CF
:101200001307F7EF944D7D8F9C41D58FD44DD58F2B
:10121000D441A206D58FD98F5CC11C4537F7F1FFA9
:101220001307D77FD4457D8F9C49D58F944586067B
:10123000D58FD98F1CC55C55370710FF7D177D8F63
:10124000DC29FD1793F7F70FD207D98F5CD5828081
:101250001C4589C593E717001CC58280F99BEDBF2B
:101260001C4593E787001CC5828008450D810589D0
:1012700082801C4593E747001CC582800845098190
:10128000058982801C4591C537075000D98F1CC540
:1012900082803707B0FF7D17F98FD5BFA54763F769
:1012A000B7048D47138765FF3307F7020328C5008E
:1012B0009D47B397E70093C7F7FFB3F70701B396CE
:1012C000E600DD8E54C5994763E3C70495477D1654
:1012D0003306F6025859FD47B397C70093C7F7FF87
:1012E000F98F3396C5005D8E50D982800D473387C4
:1012F000E502032805019D47B397E70093C7F7FF71
:10130000B3F70701B396E600DD8E14C96DBFB14790
:1013100063E2C702954765163306F6021859FD4782
:10132000B397C70093C7F7FFF98F3396C5005D8E5B
:1013300010D9828095474D163306F6025855FD4761
:10134000B397C70093C7F7FFF98FB395C500DD8D3D
:101350004CD58280684542054181828008416D8D6F
:101360003335A0008280B7F7FF1F03A54770828046
:101370009C4513F7070113F8F70001C7D8413368FC
:10138000E8008E2113F7F50F39C318418146854EC9
:101390003D4F930F800293028004214E3396DE006E
:1013A000B3F8C500631116039398260033131F0189
:1013B0001343F3FF3377E300B318180133E7E80072
:1013C000639FF70550C98506E39AC6FD18C1130748
:1013D000F00F6375B70454412146854E3D4F930F7E
:1013E000800293028004414EB398CE0033F715017A
:1013F0006392E8021317260001173313EF0013431B
:10140000F3FFB376D3003317E800D98E639DF7015D
:10141000232A15010506E319C6FD54C18280E39411
:1014200057FA10C94DB7E39757FE23281501DDB7CA
:1014300008456D8D3335A00082800CC982804CC96F
:101440008280B7070140635A0504DC4F93560501BB
:10145000131805013707300013F6F600135808017A
:10146000B376E50063500506639BE602930606012A
:101470000D46B316D60093C6F6FFF58F99C91357DC
:1014800055011377F73F12073317E800D98F6357D9
:101490000504370701405CCF8280DC4345BF13174A
:1014A000B500635607008D46B396C600E9B71357DB
:1014B00055011377F73F12073317E8001347F7FF7B
:1014C000F98F6DBF6390E60237060140544237073B
:1014D00000F17D17F98F758F58C2D5F1370701409C
:1014E0005CC382801317B500635C07008D46B3961A
:1014F000C60093C6F6FFFD8EB707000FD58FF1BF6C
:101500001357550112073317E8001347F7FF7D8F74
:10151000B707000FD98FD1B7B737004088C3828093
:10152000B7370040C8C38280B737004088C7828081
:10153000AD67373700409387A7AA1CC38280B56781
:10154000373700409387C7CC1CC3371702405C5322
:10155000898BF5DF8280B7370040DC477D8D3335DE
:10156000A000828023A6A190828003A7C190894712
:1015700010216311F70214318D4763EDD7003C2130
:101580009A0637E700E09607D58F93F7F70F329763
:101590002300F74054410547935756003317C700BF
:1015A00089CA938707048A07B7E600E0B69798C30D
:1015B000828093870706B7E600E08A07B69798C34C
:1015C0000F1000008280B71702409843B706FFF85B
:1015D0001367170098C3D843758FD8C39843B706CD
:1015E000F7FEFD16758F98C39843B706FCFFFD16EE
:1015F000758F98C3D843B70681FFFD16758FD8C382
:101600009843B70600ECFD16758F98C33707FF00A7
:1016100098C723A607028280B71702409843C17675
:10162000FD16758F98C39843B706FCFFFD16758F9E
:1016300098C341676307E500370704006307E500C7
:1016400082809843498F98C382809843B7060500EB
:10165000558FD5BF37F7FF1F0327C770B717024055
:10166000DC43931617013707C1FF63D40600370721
:10167000C3FF7D17F98F4D8D5D8DB7170240C8C32D
:10168000828009C9371702401C43B7060001D58F75
:101690001CC38280B71602409C42370700FF7D17AB
:1016A000F98F9CC28280371702405C43F19B5D8DAD
:1016B00048C38280B7170240C843318982803717F8
:1016C00002405C4393F7F7F05D8D48C38280371783
:1016D00002405C4393F7F78F5D8D48C38280B71655
:1016E0000240DC4271771307F77FF98F0E055D8D9D
:1016F000C8C28280371702405C5309C593E71700C0
:101700005CD38280F99BEDBF371702405C43914662
:10171000B18B6385D700A1466382D706B7177A00DD
:10172000938707201CC1371602405C423707002010
:10173000130707019183BD8BBA9794231C41B3D73C
:10174000D7005CC15442A1829D8ABA969422B3D636
:10175000D70014C55442AD829D8A36971823B3D75B
:10176000E7005CC558423983937637001387418080
:1017700036971823B3D7E7021CC982805C435843CD
:10178000C166C983758FB7F6FF1F83A6C670BD8B70
:1017900089071396160163480600C5460146639201
:1017A000D702C94739A88946638FD702BD46638EE1
:1017B000D702C146638ED702C54601466393D70060
:1017C000C1471DEF3747024003270780418B05C7FC
:1017D00037177A0013070720B307F7021CC121D679
:1017E0001C41858381B701466DBF0546B547D1BF12
:1017F0000146BD47F9B737173D0013070790E9BF0A
:10180000B7150240D8559316F700D85563DF060484
:1018100011833D8B9306170037177A0013070720B3
:101820003357D70218C1D455A182BD8A8DE295469F
:101830003307D702058318C13717024058571441A0
:101840003D8B050733D7E60218C1184171B78545AE
:101850006394B600E546E9BFBD456396B600D14640
:101860003387E602C9BF8906E5BF3D8B93061700A3
:1018700037177A00130707203357D702F1B799C5F6
:10188000371702401C4F5D8D08CF8280B71702408A
:10189000984F1345F5FF798D88CF828099C537170A
:1018A00002405C4F5D8D48CF8280B7170240D84F11
:1018B0001345F5FF798DC8CF8280935755000547B2
:1018C0006399E700B71702409C4333D5A700058909
:1018D000828009476396E700B71702409C53F5B72B
:1018E000B7170240DC53D5B7EFE2FFC2411102C681
:1018F000056413051003D137B24785073EC6B247CA
:10190000638387007DD513051003453F3335A00061
:1019100041016FE09FC2B7160240DC564177411784
:10192000F98FDD8DC98DCCD6828037F7FF1F032755
:1019300047701E21914611833D8BC2077117C183E9
:1019400063E6E60237370140930607C0630ED50011
:1019500013070740630AE50037570140930607C0A5
:101960006304D500631AE5000967D98F3737014052
:10197000130707C06302E50437070040630EE50262
:1019800013070740630AE5023717004093060780F4
:101990006304D502130707C06300E502373701402F
:1019A00013070740630AE50037570140930607C055
:1019B0006304D5006318E50093F7F7F8BA21C2076E
:1019C000C183D98F37170040630CE5001307074028
:1019D0006308E50093F7F7CFFA21C207C183D98FD7
:1019E0001EA1DE215EB59E211EB5B73701401387CB
:1019F00007C0630EE50093870740630AF500B757F9
:101A00000140138707C06304E5006314F5009C25BB
:101A10001EB985475EA982801E3165771307F7CF0F
:101A2000C207C183BD9BC207C1831EB11E315621AF
:101A300003D88500C20713960601162DC18393F7BC
:101A4000F7FD758F96214182A206558FB621420778
:101A50004183B3E606019206D58FB7360140C2072F
:101A6000138806C0C183630E050193860640630A8E
:101A7000D500B7560140138806C063040501631EF4
:101A8000D502B62593F7F7F703D8C5009206D58F90
:101A9000D621C207C183920693F7F7FBD58FFD7657
:101AA0009386F63FF18EF225C207C18333660601A5
:101AB0000A06D18E13960601418252A11AADFA216F
:101AC0001ABD1EB182801E2189C593E717001EA191
:101AD0008280C207C183F99BC207C183CDBF1E218B
:101AE00089C593E707081EA18280C207C18393F7C7
:101AF000F7F7C207C183C5BF1A2DFD779387F77F1C
:101B0000F98FA205CD8FC207C1831EAD82800EBDA5
:101B10008280EFE25FA01629F577FD17F58FF62199
:101B2000DA257971D58F1EA95625FD779387379FC2
:101B3000F58FD6212A842EC6D58F9625D58FB6252A
:101B4000D58F5EA55E29C207C18393F7F7CFD98FE2
:101B50005EA96808553EB747014093870780B245A4
:101B6000631EF402A2576547B387E70298419306C4
:101B700040060A07B3D7E70233D7D702B3F7D70235
:101B80001207920793872703B3D7D702BD8BD98F4C
:101B9000C207C1831EA445616FE03F9A9257E1B727
:101BA00091C55E250967D98F5EA582805A25F97790
:101BB000FD17F98FD5BF13F7F50F85471583B3953B
:101BC000B7006319F7009307C500984301CED98D7C
:101BD0008CC38280894693074501E318D7FE93079B
:101BE0000501E5B793C5F5FFF98DDDB793F5F51F51
:101BF0004EA182804A211375F51F82800A216D8DC6
:101C00003335A000828013F7F50F85461583B3970F
:101C1000B6006311D7025A25F98F1A2101454207F0
:101C2000418381CB0545A181B315B5006D8F333557
:101C3000E000828089466314D7001A29F1BF5A292F
:101C4000E1BFA1818547B397B70093C7F7FFC207EC
:101C5000C1831EA18280EFE21F8C797185452145E9
:101C60003939854537050400153993070040FC8252
:101C700037140140E1473ECE4C088D47130504C0A0
:101C80003ECCEFF0EFEE856793870780FC824C082F
:101C90009147130504C03ECEEFF08FEDA567375492
:101CA0000040938707603ED00C10B7070C00130567
:101CB00004803ED402D223160102A13D1305048004
:101CC000054693055052C53D054693054042130510
:101CD0000480D535930770137C8685475C87680040
:101CE00085473EC8EFF07F888545130504804D3D4C
:101CF00045616FE09F845971A2D637540040930527
:101D000050521305048082EE86EC8AEA8EE892E651
:101D100096E49AE29EE02AFE2EFC32FA36F83AF673
:101D20003EF442F246F072EE76EC7AEA7EE8E13D6D
:101D30001DC51305048093055052213713050480F7
:101D4000553D1384819B835704109306F00F63EC79
:101D5000F606138717002310E4103E9408A03754AA
:101D60000040C14513050480513D85476315F502C8
:101D70008357048013070480C207C1833EC683577C
:101D80004480C207C1833EC6B2479387819B23909C
:101D900007102381A71036547660E6605661C6614D
:101DA0003662A662166386637275E2755276C276F3
:101DB0003277A27712788278726EE26E526FC26FBB
:101DC0006561730020301306001081451385819BE7
:101DD000EFE06FF72310041059B7EFE22FF2B7547A
:101DE0000040014493840480138981809D499305B8
:101DF00000082685213565DDB30789008C232685FB
:101E00000504ED33E31534FF375400401304048018
:101E1000930500042285DD3365DD9386819BF822DE
:101E2000DC3222075D8F931787002183D98FC20789
:101E3000C183D3F707D0B7B7000007A78720D3F730
:101E4000E71827A8F1906FE0AFEE23A005008547C3
:101E5000138FF6FFB94F63C3E70182801398270001
:101E600032980323080093881700635567040328FA
:101E7000C8FF635168044688931E2800B29E330E43
:101E8000F840C28883AE0E006305D8000508E3055C
:101E9000D3FF63D16E0203A8050063CD0F01930841
:101EA00018000A0823A015012A9893081E00232071
:101EB000F800BE98C68745B79306450005476343BB
:101EC000B700828003A806003686BA878328C6FF3B
:101ED0006357180123201601FD177116E5FB8A07C9
:101EE000AA9723A0070105079106D1BF9386450055
:101EF00005476343C700828003AE06003688BA8771
:101F000013132E002A93832EC8FF032F03009398E8
:101F10002E00AA9883A8080063D7E8012320D801DF
:101F2000FD177118EDF38A07AE9723A0C7010507C7
:101F30009106C1B7EFE22FDE2A843285904141112C
:101F4000AE84A28536C65D37B2461308C4FFFD577E
:101F50007D5EB30ED0408C403E8363C7B7002285C0
:101F6000A13F41016FE06FDD85073E869CC0639411
:101F7000C5001108CDB71315260022951841FD584C
:101F80006304C301832808003307174163C4E600D4
:101F9000635BD70198409308170023A01401084100
:101FA0000A07229708C30506D9B7EFE2CFD6411139
:101FB0002E8442C4AA8432893EC6413DB2474A8635
:101FC000A285BE862685BD371C4022486353F80093
:101FD000C2871CC041016FE04FD6EFE24FD1BA84F7
:101FE000BE8C5571AA8B2E8B328D3689428C01475F
:101FF0008147634F670933D7670381461384C1273D
:1020000063CF6609A28A9306047C9387C127114691
:102010009843CC4391072E97CC432E978C472E970D
:102020003347C70223AEE7FEE394F6FEA28581465E
:102030001387C1AB1308C07B3E86C84103A30500CC
:10204000B308D70091063305654023A0A800910589
:10205000E39506FFBA851305877B9387C1AB0948D3
:10206000944383A847009107C696B3C6060323AEE0
:10207000D7FEE317F5FEBA881545AD6E130FA047DE
:10208000930FE01E9307B5FF13888E38814625A86D
:1020900093162700DE9694420507B69799BF1396CC
:1020A0002600B305C4005E9610428506198E90C1C5
:1020B00081BF8A07BA97035308009C430908B307F6
:1020C000F3029D8EF287138E1700E394A7FEB3C62A
:1020D000E6039108728523AED8FEE315FEFB930755
:1020E000C77B01479441910513D5F641A98E898E8E
:1020F0003697E399B7FE9306F01E3347D702A14700
:1021000015481386C1AB4C00480945351247854731
:1021100063DAE706540981470546CC428842050642
:102120009106898DAE97E31AC7FE9306F7FFB3C6F3
:10213000D702856793870777B3C7D70223A0FC0030
:1021400085472300FC00814763C5E704372600204C
:10215000814781461306C63F63C86605AC082E88D2
:1021600001450146930E301E634FE604854763C068
:10217000A70A930790C12320F90023800400696116
:102180006FE06FBA930790C123A0FC0023000C00FE
:102190005DBF9396270070084C093696AE96944220
:1021A0008507890614C24DB73385FB000841B30586
:1021B000F400850688C13305FD000841B305F6002B
:1021C000910788C151BF740893172600B6979C43A6
:1021D0009386A7FF63EDDE009386B7FF370E0001FD
:1021E000950705436398F60063130300050505068C
:1021F00011089DBF93982600A29883A8080063D673
:10220000C8012320D800468E01438506E1BF37264A
:1022100000209307C63F1388077C1306C63F9146EC
:1022200003A70A0083A84A009107910A469783A84A
:102230004A00469783A88A0046973347D70283A867
:10224000070023AEEAFE03A7C7FF469783A847000F
:10225000469783A8870046973347D70223AEE7FE09
:10226000E310F8FC02C402C602C802CA02CC2E87E0
:1022700081479306401F03280700E3CC06EF85073C
:102280001107E31AF5FE814A0143294E914E514F41
:102290007D15D44103A805000503B3820641635EA2
:1022A0005E0AC288B70F00FF370700FF15A093979B
:1022B0002800B303F40083A3030063D47F00468A9D
:1022C0009E8FB2979C436354F700C6893E8785086A
:1022D000E3CFD8FC131B28008A06B3076401B308B8
:1022E000D4009C4383A80800B3030A41B388F84094
:1022F000B388780293932900B3C85802BE98B307F5
:1023000074009C43B3871741B387E70213D7774024
:102310006355E00463C35E05329BB29683270B00CE
:10232000944233880941B2939D8EB3860603B3C6A7
:102330005602BE9683A70300958FB387F7039D8748
:1023400089CFB387E70393962A001308010DC2963D
:10235000850AB3C7E70223ACF6F29105E34BA3F27B
:10236000D6852800EFF05FB593D71A408D461397B6
:10237000270063DF5603FD1794098A07B69736973F
:10238000032787F383A787F3BA970947B3C7E70201
:102390001387D7FF9306400BE3EDE6DC2D671307A9
:1023A000873CBA979C232320F90085479CA0C1BB9A
:1023B0009C093E97832787F3E1BFEFE2CF95411158
:1023C00085452145EFF0AFCBC147371401403EC6EC
:1023D00085677C824C008D47130504C03EC42313DF
:1023E0000100EFE0FFF88565130504C0EFF02F85CD
:1023F00041016FE08F94EFE20F920545EFF08FAF50
:10240000371702405C53898BF5DF15651305555569
:10241000EFF08F901945EFF0AF900545EFF0AF93D7
:102420008547E30CF5FE05657D15EFF0EF8F05445C
:102430000945EFF04F92E30D85FEEFF06F8FEFF05F
:102440000F906FE08F8FEFE20F8DEFF06F8E6FE0E8
:10245000CF8EEFE24F8C411185454145EFF02FC201
:1024600089477C82930780023EC64C008D47371512
:1024700001403EC4EFE0DFEF894537150140EFE052
:102480001FFC41016FE06F8BEFE2EF888945371544
:102490000140EFE0FFF9133515006FE00F8AEFE21E
:1024A0008F87894763F5A708C14737043C0063E07D
:1024B000A70275151375F50FB54737043C0063087F
:1024C000F500AD670A05938747553E950041EFF04B
:1024D0008F8F4165EFF04F94EFF00FC18547631484
:1024E000F5040145EFF0AF9D13050040EFF02F9E7E
:1024F0000145EFF0CF9E81450145EFF0CFC1416529
:10250000A285EFF02F950545EFF0AF9713059003E7
:10251000EFF0AFBA65DD0945EFF0EF982144EFF039
:102520006F99E31E85FEEFE03FB16FE00F810D452F
:1025300049B7EFD25FFE411185454145EFF02FB419
:102540009307003E7C82C1473EC64C008D4737153D
:1025500001403EC4EFE0DFE19305003E3715014046
:10256000EFE0BFED41016FD05FFD411102C6B24700
:1025700063E4A70041018280B24785073EC6C5BF1C
:102580002147B71701409306000213060004931574
:102590008501D4CBE18563CF0500D0CB7D1706053F
:1025A00094CB1377F70F1375F50F75F3130700022C
:1025B000D8CB828090CBDDB7EFD2FFF5B7170140C3
:1025C00013070010D8CB13070002D8CB553F6FD0AC
:1025D000DFF6EFD25FF4B71701401307001098CB76
:1025E00013070002D8CB693F6FD03FF5EFD2BFF29F
:1025F0001305A002D1370145E93F0145D93F014507
:10260000C93F1305000FF1371305B00275370145B7
:10261000C93701457D3F01456D3F1305000F553F0B
:102620001305C002513F9304000F1304000F13055C
:10263000F00F45371305F00F7D14613F6DF8FD1461
:10264000EDF46FD09FEFEFD21FED371401409307E9
:1026500000021CC8930700201CC89304000844C84B
:102660001305803E19371305803E04C8FD3D4545DE
:10267000A13713058007D53D1305A003353F154548
:10268000893F1305500C0D3F6945A13713056003C1
:10269000253701453D3F1305200B393F1545153FB3
:1026A0001545053F01453537130530031D37130523
:1026B000300305371305700B01371545193F130516
:1026C000B00BDD3D1305F00329371305000CED3584
:1026D0001305C002FD3D1305200CF93D0545D53D10
:1026E0001305300CD13D3D45ED351305400CE93562
:1026F00013050002F93D1305600C7D3D0545D13DF4
:102700001305000D553D1305400AE1351305100A68
:10271000C9351305800E4D350D45653D1305900EE9
:10272000613D25457D3525456D3521455D351305D3
:10273000000E59351305000D693D1545593D2545D8
:10274000493D2545793521456935514559351305AB
:102750008002413513053003AD3D1305F003953D6F
:102760001D45853D4D45B5355145A53513058002BF
:102770008D3513050003B13D1305100E353D1305CE
:10278000000D813D1545B1352545A13525459135CE
:10279000214581350D45353D130540021D3D13058D
:1027A0002003053D130520032D351305B003153512
:1027B000514505354D45313D13058002193D130541
:1027C000F002013D13051002C53B13059002ED33E5
:1027D0006FD0BFD6EFD29FD29304F6FF411113847E
:1027E000F6FFAA94AA891305A0022E892E943AC650
:1027F000B28A368AEFF05FDC13D589001375F50FC6
:10280000EFF03FDD13F5F90FEFF0BFDC13D58400D7
:102810001375F50FEFF0FFDB13F5F40FEFF07FDB2F
:102820001305B002EFF05FD9135589001375F50F4A
:10283000EFF03FDA1375F90FEFF0BFD913558400AD
:102840001375F50FEFF0FFD81375F40FEFF07FD885
:102850001305C002EFF05FD6324781441359870059
:102860001379F90F1374F70F6390440341016FD08C
:102870003FCC4A85EFF0FFD52285EFF09FD5850943
:10288000E39959FF8504CDB78149DDBFEFD23FC63B
:1028900001171377F70F930740034111AA842E8481
:1028A000B28963E4E70EAD670A07938707483E974E
:1028B000032907001305A00236C6EFF0FFCF13D59A
:1028C00084001375F50F13FAF40FEFF09FD05285C3
:1028D000EFF03FD0FD0413D584001375F50FEFF032
:1028E0005FCF1305FA011375F50FEFF09FCE1305B7
:1028F000B002EFF07FCC135584001375F50F137AF7
:10290000F40FEFF01FCD5285EFF0BFCC7D041355CF
:1029100084001375F50FEFF0DFCB1305FA01137583
:10292000F50FEFF01FCB1305C002EFF0FFC8B24662
:1029300013DA8900137AFA0F93DA860093FAFA0F02
:10294000814C130B000893F4F60F93F9F90F930BD6
:10295000000293D72C00CA9703CC07000144935779
:102960002400B357FB40B3F787019DC35285EFF0B6
:102970005FC64E850504EFF0DFC5E31274FF850CDA
:10298000E3998CFC41016FD01FBA1389418C1DB7AC
:102990005685EFF01FC42685F1BFEFD23FB62A84DB
:1029A0002E89B289368ABA84930AF00E038704000E
:1029B00019E36FD0FFB79307F401E3ECFAFE228529
:1029C000D2864E86CA858504EFF05FEC13040402BC
:1029D000F1BFEFD25FB4AA842E84EF00E068130544
:1029E000E00AEF003001EF00607115E12685EF008D
:1029F0007000EF00A07001ED2285EF00A07FEF00D6
:102A0000E06F11E5EF00C06A05456FD01FB3EF001E
:102A1000206A0145DDBFEFD21FB041112A84EF00CB
:102A2000A0641305E00AEF00E07CEF00206D05E9EB
:102A30002285EF00207CEF00606C15E13525130541
:102A4000F00AEF00207BEF00606B11E9EF0050010E
:102A50002AC6EF00E065324541016FD01FAEEF009E
:102A600020650145D5BFEFD21FABAA8401452E8456
:102A70005D3705454D37CD2B1305E00AEF00807714
:102A8000EF00C06739E52685EF00C076EF000067EC
:102A900029E1D92B1305F00AEF00C075EF0000669D
:102AA0000DE90545EF00C07B08A00545EF00407B20
:102AB00008B00545EF00C07A28A00545EF00407A30
:102AC00028B00545EF00C07948A00145EF004079E6
:102AD00048B0F92B6FD07FA6EFD2FFA39305000477
:102AE0002545EFF01FEF930500042545EFF07FEE3D
:102AF0006FD0BFA4EFD23FA241118545214502C24C
:102B000002C402C6EFE0BFD7C147371501404C00F1
:102B1000130505C07C82930780043EC6EFE05F8505
:102B2000DD21EFF07FFB9305000C0945EFF07FEA14
:102B300081450D45EFF0FFE981451145EFF07FE953
:102B400081451545EFF0FFE881451945EFF07FE835
:102B50009305F0022145EFF0DFE78D452545EFF0C5
:102B60005FE79305D0022945EFF0BFE69305A00289
:102B70003145EFF01FE69305A0023545EFF07FE504
:102B8000930540024145EFF0DFE437B5000013053F
:102B90008558EF30C02341016FD03F9A1C42154742
:102BA0008A07AE9788C31C428507B3E7E7021387FD
:102BB00045011CC2814794419105B697E39DE5FE0E
:102BC000154533C5A7028280B7B7000087A6075A0C
:102BD00053F705D0B7B70000D37705D05377D71098
:102BE00087A6475AC3F7D770539507C08280EFD2A4
:102BF0001F90370400204111130A0402B71401404A
:102C0000856A371B002002C2814B13090402B719E1
:102C10000300938404C0D29A130B0B02832704028F
:102C200063C1FB02FD178A073E99832749000145CE
:102C30003EC241016FD03F8F7D1C63170C007D5554
:102C4000CDBF138C19D4854CC1452685EFE04FFECE
:102C5000E30495FF2C001D45EFF0FFE018859484F8
:102C60001C842207558F931687002183558F3706C2
:102C70000300C2074207F18F4183D98F9885232231
:102C8000FA004207718F3086931686002182D18E1A
:102C9000C206C182558F232AEA7C03A74AFA63F44D
:102CA000E70023A2FAFA03278BFA6374F7002324C0
:102CB000FBFA850B110A9DB7EFD2FF85B7050020FF
:102CC00083A5050237180020B7170020371700200A
:102CD000B716002037060020370500201308C8FD6E
:102CE000938787FD130747FD938606FD130646026B
:102CF0001305457FEFF06FAE6FD03F84EFD2AFFE8C
:102D0000B707002003A7070293860702856A7D178D
:102D10000A073697032A4700371900204111138408
:102D2000070293094006BE84938D070293864A9654
:102D3000B73B0020B73C00201309090283A7040217
:102D400063C5F90041016FD0CFFDB307D4009C43A8
:102D500003254419D2853EC6EFF01FE7B2472A8DFE
:102D600048C0D2853E85EFF03FE6232AA47C138637
:102D700001929385CBBC6A85EFF05FE248C00325E2
:102D8000447D1386C19293850CBEEFF03FE1232A68
:102D9000A47C33875D015C40032647FA85669386F1
:102DA000469663F4C7002322F7FA032789FA63746F
:102DB000F7002324F9FA8509110449B7B717002051
:102DC000938707020387C7FB8546B71700209387C1
:102DD0000702631FD70883A587FB9306C0081386E5
:102DE00085FD63E7C6081386C19108229386819109
:102DF00035E58CC218A2984223ACE7FA0547238E2A
:102E0000E7FA038747FB85466311D70883A507FBCD
:102E1000F9461386A5FB63EAC6061386819208224B
:102E20009386419229E98CC218A2984223A8E7FA16
:102E30000547238AE7FA8386C7FB05476396E600C2
:102E400083A687FB238AD190838647FB0547639639
:102E5000E60003A707FBA38AE190828090420D471A
:102E60003307C70211462E973347C70298C261B78E
:102E7000238E07FA79B790420D473307C7021146F0
:102E80002E973347C70298C24DB7238A07FA65B712
:102E9000EFD26FE87971854513054020EFE03F9E42
:102EA000371501408D4705444C00130505803EC48D
:102EB0006082231301002316010023170100EFE0B5
:102EC0002FCB1306000281450808EFD0CFE723027D
:102ED000810237240140B7070E000C081305044097
:102EE0003ECEEFE08FB19D46054681451305044077
:102EF000EFE0CFBA854513050440EFE06FB5130549
:102F00000440EFE0EFB5930404402685EFE0EFB511
:102F10006DFD1305044037240140EFE08FB5130425
:102F200004402285EFE08FB56DFD45616FD0EFE085
:102F3000EFD26FDE37250140854513050540372464
:102F40000140EFE02FB49304044089452685EFE06B
:102F5000EFC065DD13050440EFE0CFBFB7B7000059
:102F600007A7875AD37705D0B7B70000D3F7E71084
:102F700007A7C75AB7B70000D3F7E71807A7075B3B
:102F8000D3F7E71027A8F1926FD02FDBEFD2AFD89D
:102F90004111930700087C82371501408D473EC4DC
:102FA0004C00D147130505C03EC623130100EFE0D6
:102FB0002FBC41016FD06FD8EFD2EFD541119307ED
:102FC0000008371501407C824C00930780041305EC
:102FD00005C03EC623130100231401002315010080
:102FE000EFE00FB941016FD04FD5411102C6130771
:102FF000F009B2476374F700410182800100B247D3
:1030000085073EC6FDB7EFD20FD141118545214559
:1030100002C202C402C6EFE09F8693070004371481
:1030200001407C828D473EC44C00C147130504C05B
:103030003EC6EFE0EFB3930700087C824C00D14717
:10304000130504C03EC6EFE0AFB2130504C09305FC
:103050000004EFE08FBE93050008130504C0EFE005
:10306000CFBD41016FD06FCDEFD2EFCA3714014011
:10307000EFF0DFF1130504C093050008EFE0EFBBAC
:10308000130504C093050004EFE02FBBEFF0FFF53C
:10309000130504C093050008EFE06FBAEFF0FFF4EA
:1030A00093050004130504C0EFE06FB96FD0EFC8BB
:1030B000EFD26FC637140140EFF05FED130504C087
:1030C00093050004EFE0AFB7130504C093050008B3
:1030D000EFE0EFB6EFF07FF1130504C093050004B5
:1030E000EFE0AFB5EFF07FF093050008130504C0E3
:1030F000EFE0AFB4EFF07FEF6FD02FC4EFD20FC08F
:10310000EFF09FEB37140140130504C0930500084E
:10311000EFE0AFB2EFF07FED130504C093050004BC
:1031200037190140EFE06FB11304B00FEFF0FFEB80
:10313000930909C0930500084E85EFE06FAFAA849C
:1031400001E993050004130509C0EFE04FAF01A8A2
:103150007D141374F40F79FCEFF09FF585442685F8
:103160006FD00FBDEFD22FBB37140140130504C041
:1031700093050004EFE0AFACEFF05FE1130504C08E
:1031800093050008EFE0AFABEFF03FE6130504C096
:1031900093050004EFE06FAAEFF03FE5930500040C
:1031A000130504C0EFE0AFA96FD02FB9EFD2AFB6CF
:1031B00037140140130504C093050004EFE02FA865
:1031C000EFF0DFDC130504C093050008EFE0EFA685
:1031D000EFF0BFE1130504C093050004EFE0EFA595
:1031E000EFF0BFE093050004130504C0EFE02FA546
:1031F0006FD0AFB4EFD22FB22A8937140140EFF06D
:10320000FFD8130504C093050004EFE04FA3A144C9
:10321000130404C093178901E187930500082285F0
:1032200063DD0702EFE06FA1EFF03FDC93050004E0
:103230002285EFE08FA0FD14EFF03FDB9305000443
:103240002285060993F4F40FEFE06F9F1379F90FCD
:10325000EFF0BFD9E1F06FD04FAEEFE04F9EE9B78E
:10326000EFD2CFA937190140AA89A144EFF0DFD4EA
:103270000144130909C0930500044A85EFE02F9C1F
:10328000EFF0BFD6930500044A85EFE00F9B0604DC
:10329000930500084A851374F40FEFE06F9901C598
:1032A00005041374F40FFD1493F4F40FEFF0FFD33F
:1032B000F9F063970900EFF07FEF22856FD04FA7F9
:1032C000EFF05FEADDBFEFD20FA5797185450945C3
:1032D000EFE0CFDC85452545EFE06FDA930700028C
:1032E000FC8237150140E1473ECE4C088D4713055F
:1032F00005C03ECCEFE0CF8737151A008545130592
:103300000580EFE00F94B717002083A7071B09671C
:1033100013070771B3D7E702370400402C001305E9
:10332000044023150100FD177C849307700C3EC6F2
:10333000EFE0AFDFC167938707063ED00C109547DB
:10334000130504402313F10223140102EFE0CFEC34
:1033500013050440A145EFE02FFA1305044085450D
:10336000EFE0EFF7854513050440EFE0CFF5456149
:103370006FD0AF9CEFD22F9AB7B7000087A7475BFB
:10338000B7B7000007A7875B5375F518B7B70000FC
:1033900087A7C75B65474375E578D31715C0BE851A
:1033A000C207C1836373F700E545139705014183A5
:1033B00095476373F7009545C20537050040C18105
:1033C00013050540EFE0AFF46FD02F97EFD2AF9425
:1033D000371401409145AA8413050480EFE02F863D
:1033E000EFF0BFC08945130504809DC4EFE0EF8472
:1033F000EFF0BFBF37140140130504809145EFE0A3
:10340000CF83EFF09FBE914513050480EFE02F833B
:10341000EFF0BFBD6FD06F92EFE06F82D1BFEFD200
:103420008F8F37140140130504808945EFE0EF804A
:10343000130504809145EFE04F80EFF01FBB8945F5
:1034400013050480EFD0BFFFEFF03FBA6FD0EF8ECF
:10345000EFD2CF8A37140140AA8981441304048033
:10346000130A0008214991452285EFD05FFDEFF056
:10347000DFB7B3579A40B3F737018945228585C333
:10348000EFD0BFFBEFF07FB6914522858504EFD0EA
:10349000DFFAEFF09FB5E39824FD6FD06F89EFD08E
:1034A0001FFACDB7EFD22F873714014013050480E0
:1034B0008945EFD09FF8130504809145EFD03FF880
:1034C000EFF0BFB2130504809145EFD01FF7EFF086
:1034D000DFB1894513050480EFD09FF5AA8491459B
:1034E00013050480EFD0BFF5EFF03FB03335900007
:1034F0006FD0AF84EFD22F82B714014013850480C0
:103500008945EFD09FF3214901449384048091457C
:103510002685EFD0DFF2EFF05FAD91452685EFD045
:10352000DFF1EFF09FAC0604894526851374F40F94
:10353000EFD01FF019C1136414007D191379F90F2E
:10354000E31709FC22856FC05FFFEFC2DFFC371471
:103550000140130504808945EFD07FEE13050480F8
:103560009145EFD09FEDEFF05FA8894513050480EA
:10357000EFD0BFECEFF07FA76FC03FFCEFC2BFF909
:10358000411185451145EFE08FAFD1473714014018
:103590003EC699477C824C008D47130504803EC48B
:1035A00023130100EFD0DFDC130504808945EFD041
:1035B000DFE8914513050480EFD03FE841016FC07B
:1035C000DFF7EFC25FF5411102C423160100EFF0EF
:1035D0001FE513058008EFF0BFE7EFF0BFEC01C96E
:1035E000EFF0BFF60544228541016FC01FF51305BA
:1035F000C002EFF0FFE5EFF0FFEA09C5EFF0FFF4DE
:103600000944D5B71945EFF0BFE4EFF0BFE909C5AC
:10361000EFF0BFF30D44C1BFEFF03FF33D45EF10B6
:103620006025EFF0DFDF13059008EFF07FE2EFF0A9
:103630007FE72A84814441E91549EFF0BFEB3C0064
:10364000A69788A385040145EFF05FD8E39724FF90
:10365000EFF05FEA0545EFF07FD7EFF01FEF188638
:103660009C8522075D8F931787002183D98F38842B
:10367000C207C18353F707D0931787002183D98FDF
:10368000C207C183D3F707D0B7B7000087A6075C8E
:10369000B7B70000D3F7D71087A6475CB7B70000CD
:1036A00007A6875CD3F7D718D3F7C70827ACF192E2
:1036B000B7B7000087A7075BD377F710D3F7D71802
:1036C00027AAF1920DB7EFF05FE8114429BF938765
:1036D00041959843636DA702D043B386C700631634
:1036E000D50054413E85B296D4C35041B306C500BF
:1036F000631AD70083A6C1936306D70054431843C7
:10370000B29654C118C16303F50088C38280BA879A
:10371000C9B7EFC2BFDE41112AC6EF00106883A708
:10372000C1939386C193138601943245B1E737372D
:103730000020930747BF93F5F700130747BF81C5E4
:103740001387F700419B9385419523A2050098C1FB
:10375000A165C115AE97C19B23A2070023A0070056
:10376000B385E7409CC21CC323A4B19423A2B194A7
:10377000B70700804CC31CC2032A0600B377AA0017
:1037800085E39307F5FF3957636CF700930705014D
:1037900013F7F7002DCF13F707FF410763E8E7069C
:1037A000814435A822872E84ADA858C15CC0EFF0B3
:1037B0001FF25840938681949042B307E94023A0BA
:1037C000F90063F3C7009CC23367EA009387C19492
:1037D00058C09843C10423200400050798C3EF0094
:1037E000F07493F7F400D1C7A167938707807390B3
:1037F000073037B6000037B500001306C65C9305E6
:1038000000111305455FEF20E04A01A0BA8703A924
:10381000419493894194E365F9F803A44195138792
:10382000419550406374F6000C40ADFD9442E3892D
:1038300086F61440044314C33307F640930600028F
:10384000E3F9E6F63305F4009376F500B9DEA167F7
:10385000938707807390073037B6000037B50000B4
:103860001306C65C9305F00C1305455FEF208044FA
:1038700001A0268541016FC0BFCB49CDEFC2BFC9B2
:10388000032745FF83A701942A84B376F7009DE2BE
:10389000A167938707807390073037B6000037B56C
:1038A00000001306C65C930540121305455FEF2028
:1038B000604001A0832605FF9DC2A1679387078012
:1038C0007390073037B6000037B500001306C65CAA
:1038D000930550121305455FEF20C03D01A093C72B
:1038E000F7FFF98F232AF5FEEF00304B93874194C1
:1038F0009443032744FF130504FF369798C3EFF062
:103900001FDD938701959843050798C3EF00106268
:103910006FC0BFC2828003A541948280B7E700E0F8
:1039200041572387E7402386E740B7F700E023A00D
:10393000070023A20700814694C70147D8C737175D
:1039400000208325071B1307401F814633D6E5025D
:103950003D4790CBD4CB98C38280EFC2DFBB4111EF
:1039600002C6F32750303EC6B2470D478D8B6384A5
:10397000E702A167938707807390073037B600008E
:1039800037B50000130686619305600B1305455F8C
:10399000EF20403201A0B707022093870700BD8BBC
:1039A0009DC3A167938707807390073037B60000E7
:1039B00037B50000130686619305B00B1305455F0C
:1039C000EF20402F01A0EFF07FF5B7E700E005679B
:1039D00023A0E710116723A0E71023A80180EFC000
:1039E0003F92014541016FC05FB55D7182E686E49B
:1039F0008AE28EE012FE16FC1AFA1EF82AF62EF45F
:103A000032F236F03AEE3EEC42EA46E872E676E40E
:103A10007AE27EE073110134A16793870780739087
:103A20000730B7F700E023A20700EF00303811C5D8
:103A3000B7E700E0116723A0E720A1679387878895
:103A400073900730731101343660A6601661866189
:103A50007272E2725273C2733275A27512768276F6
:103A60007267E2675268C268326EA26E126F826F2E
:103A7000616173002030A1679387078073900730DE
:103A8000938701819843050798C38280138701813A
:103A90001C438DE7EFC23FA8A1679387078073900F
:103AA000073037B6000037B500001306866193056E
:103AB00020101305455FEF20E01F01A0FD171CC378
:103AC00091E7A16793878788739007308280930777
:103AD00085007D575CC118C55CC51CC92320050045
:103AE00082802328050082805C419847DCC198C50C
:103AF00098474CC38CC71C4188C985071CC182806C
:103B00009841FD5693078500631ED7001C49D84392
:103B1000D8C10CC79CC5CCC31C4188C985071CC132
:103B20008280B687D4439042E37DC7FECDB754412F
:103B300018451C4998C654C3D4436393A600D8C300
:103B40009843232805007D1798C388438280EFC2DD
:103B50009F9C41112AC6EFF01FF23245005DEFF045
:103B6000FFF21335140041016FC03F9DEFC2BF9AB1
:103B700032893041045D2A8409EE1C41014591E7F8
:103B80000844EF10800523240400850404DC6FC082
:103B9000DF9A631009024841EF1080685C403840AA
:103BA0000145BA9718445CC0E3E1E7FE1C405CC0E5
:103BB000E9BF4845EF10C0663C4058441440B30785
:103BC000F0403E9758C46375D7001844BA975CC458
:103BD00089470145E31BF9FACDD8FD147DB7304183
:103BE00015C2EFC25F9358451445AA87329758C54E
:103BF0006364D700184158C52E85CC47EF1040624A
:103C00006FC0BF938280EFC21F912A84EFF0BFE69E
:103C10008344540413094402E204E184634890029B
:103C2000FD57A302F404EFF07FE6EFF0DFE48344F6
:103C3000440413090401E204E18463459002FD5742
:103C40002302F404EFF09FE46FC03F8F5C50E9DB88
:103C50004A85EF00505C19C1EF007076FD14E20454
:103C6000E1846DBF1C48E1DF4A85EF00D05A19C1DD
:103C7000EF00F074FD14E204E184C1B7EFC2BF8924
:103C800041111DE1A167938707807390073037B614
:103C9000000037B5000013060664930500111305F4
:103CA000455FEF20200101A05C5D2EC62A84BDC7C0
:103CB0003841B3B7E702BDE3EFF0FFDB3040585CBB
:103CC0001440232C0402B307E602B24554C03387E4
:103CD000F600918FB6975CC4FD572302F40418C414
:103CE000A302F4049DE11C4899CB13050401EF00E5
:103CF000905211C5B7E700E0116723A0E720EFF06D
:103D0000FFD8054541016FC05F8313050401EFF043
:103D10001FDC13054402EFF09FDBD5B7A167938743
:103D200007807390073037B6000037B500001306E0
:103D30000664930550141305455FEF10B07701A09A
:103D4000EFC26FFD411131C1B3B7A502AA8495EF4F
:103D50003305B502930770FB63E9A70213058504D9
:103D60002EC6EFF01F9B2A8409CDB245AA8799C1C0
:103D7000930785042CC01CC044DC85452285EFF0E8
:103D8000FFEF228541016FC04FFBA167938707803A
:103D90007390073037B6000037B50000130606648D
:103DA0009305601C1305455FEF10D07001A0EFC2B2
:103DB0000FF4011132C61DE1A1679387078073904C
:103DC000073037B6000037B50000130606649305C8
:103DD000E0321305455FEF10F06D01A02A842E89B3
:103DE000B6848DE53C419DC3A1679387078073909E
:103DF000073037B6000037B5000013060664930598
:103E0000F0321305455FEF10F06A01A0894763980F
:103E1000F402585C85476304F702A1679387078023
:103E20007390073037B6000037B5000013060664FC
:103E3000930500331305455FEF10D06701A0EF0035
:103E4000905815E5B247014C85C7A1679387078055
:103E50007390073037B6000037B5000013060664CC
:103E6000930530331305455FEF10D06401A0014C7A
:103E7000094BFD59930B040137EA00E0916AA5A8AC
:103E8000B24789E7EFF09FC0014555A063150C00CC
:103E90002808EF001046EFF07FBFEF000070EFF052
:103EA0009FBD83474404E207E187639437012302FF
:103EB000040483475404E207E18763943701A302B3
:103EC0000404EFF0BFBC6C002808EF00704335ED30
:103ED000EFF07FBA185C5C5C631EF704EFF01FBB69
:103EE000B2455E85EF00D0272285EFF0DFD1EF00ED
:103EF000F00329C9054CEFF01FB8185C5C5C6364E3
:103F0000F700E39F64F72686CA852285EFF01FC677
:103F10005C5089C713054402EF00F02F11C5B7E7C5
:103F200000E0116723A0E720EFF05FB605450561CB
:103F30006FC06FDFEFF09FB52285EFF0DFCCEF00B1
:103F4000E07E4DBF23205A2175B72285EFF0BFCB0D
:103F5000EF00C07D15BFEFC28FD9011132C61DE140
:103F6000A167938707807390073037B6000037B595
:103F7000000013060664930510551305455FEF1006
:103F8000705301A02A84AE898DE53C419DC3A16791
:103F9000938707807390073037B6000037B500006D
:103FA00013060664930550551305455FEF109050B6
:103FB00001A0EF00504115E5B247014985C7A1674F
:103FC000938707807390073037B6000037B500003D
:103FD000130606649305A0551305455FEF10904D39
:103FE00001A001497D5A930A440237EB00E0916B2E
:103FF0008DA8B24789E7EFF07FA9014561A8631555
:1040000009002808EF00F02EEFF05FA87923EFF009
:104010009FA683474404E207E18763944701230294
:10402000040483475404E207E18763944701A30231
:104030000404EFF0BFA56C002808EF00702C25E504
:104040002285EFF0DFB031C9B2455685EF0050113F
:104050002285EFF05FBBEF00606D19E123207B212B
:104060000549EFF05FA1045CC9D4CE852285FD141B
:10407000EFF0FFB604DC1C4899CB13050401EF00F8
:10408000901911C5B7E700E0116723A0E720EFF012
:10409000FF9F054505616FC00FC92285EFF0BFB6D0
:1040A000EF00C06875BF2285EFF0FFB5EF00006834
:1040B0002285EFF0DFA94DD589B715E5EFC2AFC571
:1040C000A167938707807390073037B60000856536
:1040D00037B5000013060664938585AC1305455F6C
:1040E000EF10503D01A09DCD37B60020930646BF8E
:1040F00081470147130646BF214883A846006398BD
:10410000A80093173700B2978CC3C8C321A891E7C2
:1041100083A8060063930800B6870507A106E31E7F
:1041200007FDFDF38280EFC20FBF41112A842EC626
:1041300032C4EFF05F94834744047D572246E20780
:10414000E187B2456394E7002302040483475404E3
:104150007D57E207E1876394E700A302040432C6B7
:104160002EC4EFF0BF921C5CA245324689E71305CE
:104170004402EF0030032285EFF0FFA841016FC039
:10418000CFBB138701961C4394439387019881E624
:104190007D5798C38280184358471843DDBFEFC24C
:1041A000EFB59384C19583A901992A849C408840E6
:1041B0004111A388070411052EC6EFF05F977D57C4
:1041C0009387C195B245631CE40295C9B7B7002037
:1041D0009387C7D99440D84398C610479440D0C617
:1041E00094401047910654C29440910614C79840D9
:1041F0005CCB9843050798C341016FC06FB39843E8
:104200004E9440C36379340103A541968C439105D4
:10421000EFF01F8FD5B703A501968C439105EFF002
:104220003F8E938701989843E378E4FC80C3E9B715
:10423000EFC2CFAC37B40020130404DB9384C196E3
:104240009C40EDDFEFF03F835C4403A9C7001305FA
:104250004900EFF0DF8D138781961C43FD171CC3C7
:104260009C40FD179CC0EFF07F8203250903EFF00F
:10427000CFE04A85EFF06FE0D1B7EFC24FA7131937
:104280002600AA8A4A852E8A368BBA8BBE89EFF021
:104290004FC81DC1AA8413054005EFF08FC72A84BB
:1042A00009C904D98147C146631A0A00230A0502D5
:1042B00025A02685EFF06FDC7D5571A23307FA004B
:1042C000030707003306F400230AE60201C7850747
:1042D000E396D7FEA3010404B94763F47703A1670B
:1042E000938707807390073037B6000037B500001A
:1042F00013064665930570391305455FEF10901B53
:1043000001A0130A44005285232674032322740556
:1043100023240404EFF0EFFC13058401EFF06FFC9D
:104320003D471305C9FF33077741269500C818CCD0
:1043300040D023060404A306040423070404A307AF
:10434000040423080404A30804045A86D68541996A
:10435000EFC00F8B08C06384090023A08900EFF031
:104360008FF1938781969843B7B90020050798C3CA
:104370001387C19518439384C195138949C3631664
:10438000070C80C0984385476312F706938949C399
:10439000930AC9124E85D109EFF06FF3E39C3AFFFF
:1043A00037B50020930A05D6130505D6EFF02FF296
:1043B00037B50020930945D7130545D7EFF02FF106
:1043C00037B50020130585D8EFF06FF037B5002022
:1043D000130505DBEFF0AFEF37B500201305C5D9A6
:1043E000EFF0EFEE23A0519723A2319793874197E7
:1043F0009843050798C3138781975C54144363F36C
:10440000F6001CC35147B387E702CA97D843144745
:1044100018C454C4144723A24601232447019843D7
:104420005CC8050798C3EFF06FE683A7C198054500
:1044300099CB9C40D8575C546377F700B7E700E00E
:10444000116723A0E7206FC00F8E83A7C198D9FF03
:104450009C40D8575C54E3EBE7F880C041BFEFC203
:104460008F8B2A84EFF02FE19384C19511E0804077
:10447000130944004A85EFF08FEB1C5489C71305DC
:104480008401EFF0CFEA938741979843050798C3DB
:104490009C406394870637B50020CA85130505DB69
:1044A000EFF08FE49387C1969843050798C3EFF028
:1044B000EFDD9C40638887000858EFF00FBC228531
:1044C000EFF0AFBB83A7C198B1C79C40639487044A
:1044D00083A701979DCBA1679387078073900730CF
:1044E00037B6000037B50000130646659305C04D8A
:1044F0001305455FEF10007C01A0938781969843D8
:104500007D1798C3EFF0FFC75DB7B7E700E011670D
:1045100023A0E7206FC06F82EFB2FFFFB7B50000A6
:10452000374500009387C197014781461306001065
:104530009385856613050523EFF03FD40544631882
:104540008502EF00F02063148502A167938707803E
:10455000739007307D5723A0E19823A6A19823A844
:104560000198EFF08FBF83A741816FB01FFDFD570A
:10457000E31BF5FEA167938707807390073037B67A
:104580000000856537B500001306466593850584F0
:104590001305455FEF10007201A0938701979843C0
:1045A000050798C3828003A50199828083A701979C
:1045B00063970716EFB23FF693870199804305048E
:1045C00080C331E4938701969843184305C7A167D8
:1045D000938707807390073037B60000856537B53D
:1045E000000013064665938575AC1305455FEF1013
:1045F000606C01A0138741969443104390C314C389
:10460000938741989843050798C3EFF09FB7938726
:1046100001989C4337B7002013860198130747C3BE
:104620009385C19501456373F4029C41D146DC57E3
:10463000B387D7023E971843854763F3E7000545E4
:1046400083A7419991C305456FB03FEF514F9387C1
:1046500001969443944281E6FD571CC2F9B79C43EE
:10466000DC47DC47D4436374D40014C27DBF83A805
:10467000870003A8C700D44B1383470023A4080175
:104680002322180183A846006394680023A2060130
:1046900003A8060023AA07007D1823A0060194574B
:1046A00095CA03A8C70183A8070283AF4600232445
:1046B000180183A8070223A20801138887016394C5
:1046C0000F0123A2160103A8060023A407027D18E8
:1046D00023A006019386819703A8C70283A806003A
:1046E00063F4080123A00601B306E803BA9683A881
:1046F000460083AF880023A4170123A6F70183AFE8
:10470000880023A26F0023A46800D4CB9C428507B5
:104710009CC29C41DC57E36CF8F205450DBF9387C2
:10472000819898430145050798C38280EFB21FDD49
:10473000138401971C40411185E7A1679387078087
:104740007390073037B60000856537B50000130653
:1047500046659385358B1305455FEF10A05501A085
:10476000EFF06FB11C40FD171CC01C4089CB014508
:104770002AC6EFF0AFB1324541016FB07FDB83A7AE
:104780008196F5D7B7B6002037B5002081479386CC
:1047900086D8130545C3D148854E59A8DC46DC4769
:1047A000CC4F9053985790C503A807022322B80016
:1047B00003284700938587016313B80050C3104353
:1047C00023A407027D1610C38C47D047D84B13880B
:1047D000470090C54CC24C436393050150C310433E
:1047E00023AA07007D1610C313878197D0570C4367
:1047F00063F3C50010C3330716032A974C4383AFF6
:1048000085008CC723A6F70183AF850023A20F0183
:1048100023A405010C43D8CB85050CC31387C19590
:10482000184358576366E600138741992320D70140
:1048300098422DF799C3EFF0DF94138781980443D2
:104840001384819889CC8549EFF05FD609C5938799
:10485000419923A03701FD14E5F82320040083A724
:104860004199E38607F0B7E700E0116723A0E7204E
:104870000545FDBD19E5B7E700E0116723A0E72076
:104880008280EFB25FC983A7019741119DC3A167E1
:10489000938707807390073037B6000037B5000064
:1048A00013064665930590541305455FEF1080404D
:1048B00001A02AC6EFF07FCE32458145EFF03F8E52
:1048C000EFF0DFE611E5B7E700E0116723A0E7208E
:1048D00041016FB09FC603A701979387419901C714
:1048E000054798C3828023A0070013878197184348
:1048F00013868197B7B70020938747C35148B30603
:104900000703B385D700884105C5C841A106BE96F7
:104910004841C8C16314D5005441D4C1D146B3063F
:10492000D702B697DC43D44723AED19418C2828015
:1049300015E7EFB25FBEA1679387078073900730DA
:1049400037B60000856537B50000130646659385C8
:1049500025C01305455FEF10E03501A07D1745B771
:10496000EFB27FBB05E5A16793870780739007309F
:1049700037B60000856537B5000013064665938598
:10498000C5C11305455FEF10E03201A02E8483A559
:10499000C195E105EFF0CF9685452285EFF03F8088
:1049A0006FB0BFB9EFB23FB72A8705E5A16793871C
:1049B00007807390073037B60000856537B5000073
:1049C00013064665938525C51305455FEF10802EB8
:1049D00001A09387C19554432E858C4303A886007C
:1049E000D4CD8C4323A0050303A807008C4661089F
:1049F00023A2050103A807009C43610823A4060124
:104A000098D71C4385071CC311C27D55B285EFF0B2
:104A10000FF96FB09FB25C45DC4795E7EFB2BFAFCF
:104A2000A167938707807390073037B600008565CC
:104A300037B5000013064665938525C81305455F05
:104A4000EF10402701A0D04F9453985793858701CA
:104A500014C6D0C250436313B60054C3144323A4F6
:104A60000702FD1614C303A70197D45735E78C47F7
:104A7000D047D84B90C5D04748434CC29385470098
:104A80006313B50050C3104323AA07007D1610C35B
:104A90001387819710436373D60014C3514733863D
:104AA000E60237B70020130747C332975043084642
:104AB00090C7C8C708464CC10CC6D8CB1C4301459B
:104AC00085071CC383A7C195DC5763F6D70005474C
:104AD00023AAE1980545828037B70020130787D8BD
:104AE00050430846D0CF88D308464CC10CC698D74F
:104AF000F1B783A741981CC183A701995CC182804B
:104B0000EFB27FA1411105E5A167938707807390FC
:104B1000073037B60000856537B5000013064665D7
:104B20009385D5CF1305455FEF10C01801A085E52B
:104B3000A167938707807390073037B600008565BB
:104B400037B50000130646659385E5CF1305455F2D
:104B5000EF10401601A02EC62AC4EFE0DFF1138744
:104B6000C19583A601991C432245B24583C7170509
:104B700099CB1C43A38807040544EFE03FF122854D
:104B800041016FB09F9B9C417D570144E387E7FE45
:104B900003A641980328050058416307C80063E550
:104BA000E60023A00500C9BF3386E640E37BF6FE9E
:104BB000958FBA979CC1EFF0DFF301447DBF0547A5
:104BC00023AAE198828083A7C198054591C703A5D0
:104BD0000197133515000605828011E50145828095
:104BE00001456FB09F95EFB21F9383A7C1952A84AB
:104BF0006385A702A167938707807390073037B654
:104C00000000856537B50000130646659385F504F9
:104C10001305455FEF10000A01A0BC4785E7A167B7
:104C2000938707807390073037B60000856537B5E6
:104C3000000013064665938505051305455FEF10D3
:104C4000600701A054557841FD173CC5E38AE6F89A
:104C5000C1FB930445002685EFE07FED7C403D4796
:104C60001D8F18CC1387819714435CD463F3F6002F
:104C70001CC351473387E702B7B70020938747C368
:104C80000545BA97D843144718C454C41447C4C23E
:104C900004C798435CC8050798C3A1B7EFB2BF87A4
:104CA000EFE07FDD1384419A1C40B1E337B500206B
:104CB000130945DC130545DCEFE07FE137B5002043
:104CC000930485DD130585DDEFE07FE023AC2199BA
:104CD0000146C145114523AE9198EFF06F8608C09B
:104CE00019C5B7B5000093854569EFF00FBDEFE03A
:104CF000FFD96FB09F84EFB21F824CC108C9AA8749
:104D00006360B602184D158E05456379E6009385FC
:104D1000470003A5C199EFE0BFDE01456FB0FF81F9
:104D20006375D6000545E3FBD5FE9385470003A5D3
:104D30008199D5B7EFB22FFE2A84AE8432890C4C0C
:104D4000A6864A86A6952285EFF0FFFA19E16FB094
:104D5000CFFE1C4C2285BE941C508297CDB7EFB27B
:104D60008FFB83A781994111AA84DC472EC6C047D7
:104D700013054400EFE0BFDB83474402324613F7DC
:104D8000470019CBA6852285EFF0DFFA1C5022855B
:104D9000829741016FB06FFAF99B2302F402FDB7CD
:104DA000EFB26FF79386819998421C4381EB93870A
:104DB000C199904398C390C26FB02FF85C47FD55DE
:104DC0008843EFF0DFF9F9BFEFB26FF22D694111BF
:104DD0001309096783A78199984329CBDC47814C44
:104DE00003AC0700EFF06FFBEFF0EFFB83A7019A36
:104DF0002A849384019A138A419A636CF50288C0CD
:104E000063800C0483A7C1999043133616000325D1
:104E10000A00B3058C40EFF00FB1EFF03F9119EDB0
:104E2000B7E700E0116723A0E72009A8854C014CF3
:104E300055BFEFF0FFF680C0EFF05F8F214C0DA063
:104E40000146E36685FDEFF07F8EA2856285EFF077
:104E50001FF1EDB79247B2458297824763DD0700A5
:104E600003250A0001468A85EFF0EF8E25D582479B
:104E70002245E3C107FE22445C489DE3EFF0AFF218
:104E80009C40AA8C6374F500EFF09FF1824723A049
:104E90009401FD17E366FCFC8A07CA979C4382874E
:104EA00013054400EFE0BFC8D1BF834744020C4C58
:104EB000924693E717002302F4026686B695228590
:104EC000EFF07FE351DD8347440213F7470001CF42
:104ED0001C4C924566862285BE95EFF0BFE51C50BE
:104EE00022858297B5BFF99B2302F402CDBF834789
:104EF0004402F99B2302F402A5B78347440292457A
:104F000093E717002302F4020CCC9DE1A16793877D
:104F100007807390073037B6000037B500001306DE
:104F2000C669930590351305455FEF00B05801A0A1
:104F3000E6866686E6952285EFF0FFDB15B78347A8
:104F4000440213F7270055F72285EFE01F9309BFAE
:104F5000EFB26FDCEFF09FD483A7419A9DE3A16786
:104F6000938707807390073037B6000037B500008D
:104F70001306C669930590111305455FEF00905322
:104F800001A0B7B50000375500009387819A3947D3
:104F90008146130600109385456B130585DCEFF001
:104FA000CFAD55DD6FB06FD9B717002083A7071BB2
:104FB00037177A0013070720B3D7E70293F7F70FE5
:104FC0002387F19A1307803EB387E7022396F19A6D
:104FD0008280B7F700E0D8438146799BD8C303D7D6
:104FE000C19A3306A70290CBD4CB9843136707012D
:104FF00098C398431367170298C3D843058B75DF8E
:105000009843799B98C38280EFB2EFD02A841165D0
:10501000011185451105EFC09F86930700207C8212
:10502000371501408D473EC44C00E147130505800C
:105030003EC6EFC0EFB322C837440140B7070800AF
:105040000C08130504803ECC02CA231E0100EFC0E9
:105050005FAC854513050480EFC09FB405616FB058
:10506000CFCDEFB2AFC9B7440140AE893289014418
:1050700093840480634524014A856FB06FCB930508
:1050800000042685EFC09FB77DD9B387890083854B
:10509000070026850504C205C181EFC03FB5D9BF11
:1050A000138781811C43B7B60020938606DF3E95A7
:1050B000636BD500B70602209386068063E5A600E1
:1050C00008C33E858280FD57EDBF411106C622C44C
:1050D00026C2D30705E07327200013D57701137587
:1050E000F50F13071500139497001377E70F25802A
:1050F00093D4F7011DC39357340013050538760484
:10510000B2075205B183C98FFE04C58F2285BE85C3
:10511000B24022449244410182800DE935C4228587
:105120004928A94763C1A7082D47098F930755014F
:105130003357E4003314F4009317C7001307903873
:105140003305A740B1831375F57F5DBF15C83707D9
:10515000080093573400D98F370710007D171316B6
:1051600094009316D401F98F635306027D8F9397B1
:10517000F401B704F07FD98CC58F3685BE8549BF51
:105180001305F07F8147ADBF0145814795BF7D8FF6
:105190009397F401B704F07F458FD98F3685BE858C
:1051A00073601800B5B7130755FF3317E4000144C7
:1051B00061B7C167637CF5029307F00F1307000224
:1051C00063EBA700976700009387874FAA97882310
:1051D0003305A74082802181976700009387474E5F
:1051E000AA97882361473305A7408280B70700014B
:1051F000636DF5006181976700009387674CAA97FC
:10520000882321473305A7408280418197670000AA
:105210009387074BAA97882341473305A74082808D
:10522000B3C7A5008D8B3307C50081E78D4763EDBC
:10523000C700AA87637EE508942185078505A38FAB
:10524000D7FEE3EBE7FE828093763500AA8789CA12
:10525000942185078505A38FD7FE93F63700C5BF38
:105260009376C7FF138606FE63F0C70683A3050087
:1052700083A2450083AF850003AFC50083AE05015F
:1052800003AE450103A3850183A8C50193854502AB
:1052900023A0770003A8C5FF23A2570023A4F7018A
:1052A00023A6E70123A8D70123AAC70123AC6700DF
:1052B00023AE17019387470223AE07FF75B79041CE
:1052C0009107910523AEC7FEE3EBD7FEE3E6E7F6D1
:1052D0008280797122D44AD052CC56CA5AC806D696
:1052E00026D24ECE3A8AAE8A32843689428B014724
:1052F00063580600370700803344C7001307D00205
:1053000098A393F4F8FD930760048D466388F40036
:105310009307500489466393F4000509DA879308DC
:10532000C100130881004A87D6852286EF00906A63
:1053300093077004AA896396F400137A1A00630A2B
:105340000A0493076004338A29016397F40203C7B0
:10535000090093070003631EF70001468146568546
:10536000A285EF40803411C585473389274123202A
:105370002B0183270B003E9A014681465685A28564
:10538000EF40A03211E152C613070003B24763E2B7
:105390004703B2474257B2502254B38737411CC328
:1053A0004E8592540259F249624AD24A424B4561B3
:1053B00082809386170036C698A3C9BF10A1130731
:1053C00025009307B00263D60500B305B0409307EC
:1053D000D0021CB1A54763DAB70441119307F1006D
:1053E000BE88294813033006B3E605031386F7FF8A
:1053F00093860603A38FD7FEB3C60503634DB300A0
:1054000093860603F917A30FD6FE63E91701330548
:10541000A74041018280B287B685F9B7850783C668
:10542000F7FF0507A30FD7FECDB7930700031307B8
:105430004500938505033CA12CB13305A74082802C
:1054400019713ACE86DEA2DCA6DA2E84CAD8CED670
:10545000D2D4B689DAD0DECEE2CC3289D6D2E6CA50
:10546000EAC8EEC6AA84EF10D052832B05005E85F1
:10547000EF00701E032B0400724702DC93760B10C2
:105480002A8C034A84011C43F1CA9386470014C343
:105490009C43081098433AD0D8433AD298473AD41C
:1054A000DC473ED6EF50A07128C46CC4832CC404E2
:1054B0001767000013070731832A8404032D0700B0
:1054C000832D470093971C0085836A86EE86568558
:1054D000BE853ECEEF50C04B41EDF2476A86EE8668
:1054E0005685BE85EF4040316354A0080146814691
:1054F0005685E685EF404030635605009307D0029D
:10550000A301F40493077004976A0000938A0A2C9D
:1055100063F64701976A0000938A8A2B137BBBFFCF
:105520008D47232064011CC8014B4E87CA86701822
:10553000A2852685C12EFD5C631E95157D55F6500E
:105540006654D6544659B659265A965A065BF64BB7
:10555000664CD64C464DB64D096182809D07E19B55
:105560009386870014C39843DC4338C47CC43DBF92
:105570005686E6865685E685EF50804111CD930725
:105580007004976A0000938AEA24E3F947F9976A5E
:105590000000938A6A2459B75C407D57137DFA0D49
:1055A0006395E70899475CC0544013670B403C186B
:1055B000D6853EC018C09307310302C2D2881308B3
:1055C000410366862685EFF0DFD093077004AA8A30
:1055D000D255631BFD00F55763C5F5005C4063D8E9
:1055E000B708791A137AFA0F9307500663E647054E
:1055F000FD155286130504052EDAEFF03FDC6257E5
:1056000085462A8BB307A7001CC863C5E60018406F
:10561000058B19C385071CC883473103E38707F04F
:105620009307D002A301F40409B713077004E31D24
:10563000EDF6BDFB854785BF93076006631BFA0245
:105640005C40635BB0000CC881E71840058B09CF54
:105650008507AE971CC809A889E718408546058BC1
:1056600019C39386270014C82CCC014B75B7130AB5
:105670007006E25763C9F5001C400CC8858BEDD756
:1056800093871500C1BF05476344B00009470D8FDC
:10569000BA97C9B71C4013F7074015E3144856865C
:1056A000CA8526858299E30B95E91C40898B639610
:1056B0000724F2574844E354F5E83E8549B51307FB
:1056C0005006637B471928446C4401468146EF30FD
:1056D000D07D39E985461766000013062610CA8575
:1056E00026858299E30C95E55257E2576345F7000A
:1056F0001C40858BDDDBE2865E86CA852685829925
:10570000FD57E30DF5E2014A930AA4017D5BE257E0
:10571000FD17E35CFAF885465686CA852685829988
:10572000E30E65E1050AE5B7D2576346F006854604
:10573000176600001306860ACA8526858299E30F3C
:1057400095DFD2576257D98F81E71C40858BB1DF37
:10575000E2865E86CA8526858299FD57E300F5DEDE
:10576000014A130BA401FD5BD257B307F040634B12
:10577000FA00E2565686CA8526858299FD57E316B9
:10578000F5F26DBB85465A86CA8526858299E30760
:1057900075DB050AD1BF3C4C625A63D347013E8A90
:1057A000635A4001D2865686CA8526858299FD575E
:1057B000E306F5D8814C130DA401FD5D09A88546CB
:1057C0006A86CA8526858299E30AB5D7850C032B9C
:1057D0008405D28763530A008147B307FB40E3C0C7
:1057E000FCFE5257E257634DF7021C40858B8DEB50
:1057F000E2575257338AE7406344EB00338A6741EC
:10580000635B4001D28633866A01CA852685829908
:10581000FD57E305F5D2814A130BA401FD5B15A0EA
:10582000E2865E86CA8526858299FD57E312F5FCDD
:1058300031B385465A86CA8526858299E30075D19B
:10584000850A5257E257998F528763530A000147DE
:10585000998FE3C0FAFE91BDE25605476344D70035
:10586000858BB5C785465686CA85268582997D5A19
:10587000E30645CDE2865E86CA8526858299E30FDA
:1058800045CB28446C4401468146EF3010621DC967
:10589000E25613861A00CA85FD1626858299E30F03
:1058A00045C9DA8613060405F9B585465686CA85C4
:1058B00026858299E30475C9050AE257FD17E34678
:1058C000FAFEC5B7014A930AA401FD5BFDB7854600
:1058D0005686CA8526858299E31595FD85B185464C
:1058E0005686CA8526858299E30A65C5050A5C4401
:1058F0007257998FE345FAFE6DBB014A930A9401F2
:105900007D5BF5B7797156CA9C49BA8A984522D40D
:1059100026D24ECE52CC06D64AD05AC85EC6AA89E6
:105920002E84B284368A63D3E700BA879CC00347CB
:10593000340419C385079CC01C4093F7070281C734
:105940009C4089079CC00329040013796900631AED
:105950000900130B9401FD5B5C449840998F634CE4
:10596000F9041C408346340493F70702B336D00091
:10597000A5EB13063404D2854E85829AFD57630346
:10598000F5041C4011469840998B54448144639718
:10599000C700B384E64063D3040081441C44184824
:1059A0006354F700998FBE94014969047D5B639845
:1059B0002405014509A885465A86D2854E85829AD6
:1059C000631E75017D55B250225492540259F2491A
:1059D000624AD24A424BB24B456182800509ADBF53
:1059E0003307D40013060003A301C704034754047C
:1059F00093871600A2978906A381E7049DBF854679
:105A00002286D2854E85829AE30E65FB050945B74D
:105A1000797122D426D24AD04ECE06D652CC56CA5E
:105A20005AC8B689942D930790063289AA842E8489
:105A300013863504638DF60263E2D706930780056B
:105A40006387F61863EDD700638F06209307300451
:105A5000638FF60A930A24042301D404D1A0930788
:105A600030066386F60A93074006E395F6FE1C406F
:105A7000084393F6070893054500CDC61C410CC3A7
:105A800063D807001307D002B307F040A301E40472
:105A9000976600009386C6D429476DA89307000730
:105AA0006383F61663E5D7029307E006638AF61868
:105AB0009307F006E390F6FA0C401C4313F8050830
:105AC000138547006308080608C39C438DA8930705
:105AD0005007E383F6FE93078007638AF612930765
:105AE0003007E399F6F61C43D04181459386470081
:105AF00014C383AA07005685EF10A07A01C53305A9
:105B0000554148C05C401CC8A301040461A81C4363
:105B1000930A2404938647009C4314C32301F4048E
